:100000000000022035210000612100006121000074
:1000100061210000612100006121000061210000D8
:1000200061210000612100006121000061210000C8
:1000300061210000612100006121000061210000B8
:1000400061210000612100006121000061210000A8
:100050006121000061210000612100006121000098
:100060006121000061210000612100006121000088
:100070006121000061210000612100006121000078
:100080006121000061210000612100006121000068
:100090006121000061210000B90D0000110E000077
:1000A0006121000061210000612100006121000048
:1000B0006121000061210000612100006121000038
:1000C0006121000061210000612100006121000028
:1000D00061210000612100006121000010B5054C84
:1000E000237833B9044B13B10448AFF300800123E4
:1000F000237010BD54060020000000007050000066
:10010000084B10B51BB108490848AFF300800848F8
:10011000036803B910BD074B002BFBD0BDE81040AE
:10012000184700BF00000000580600207050000073
:100130005006002000000000154B002B08BF134B99
:100140009D46A3F5803A00218B460F461348144A7A
:10015000121A04F0DBFA0F4B002B00D098470E4B1D
:10016000002B00D098470020002104000D000D480E
:10017000002802D00C48AFF3008004F099FA200068
:10018000290000F05DF804F07FFA00BF00000800CD
:1001900000000220000000000000000054060020C3
:1001A000DC1300200000000000000000034BDB6CAB
:1001B00003F07F431B0EDBB218467047B081E00F9F
:1001C00000B583B0FFF7F2FF03468DF8073001ABAF
:1001D000184603F053FA9DF807300F2B0BD99DF802
:1001E0000430022B07D9064A054B1B6823F0500345
:1001F00043F01003136000BF03B05DF804FB00BFC1
:10020000C0800C4000B583B00123042202210420E9
:1002100003F098F90023019302E0019B013301935D
:10022000019B064A9342F8DD0023042202210420A8
:1002300003F088F900BF03B05DF804FB3F420F00F4
:1002400008B5FFF7BDFF0121044802F02DFAFFF7C2
:10025000D9FF01F0C7FE0023184608BD00D20400F4
:1002600000B583B000F0D6F900F04EF8154B03222C
:100270001A70002301930EE0019A1346DB00134429
:100280005B000133019AD2B20132D1B20D4AD1548E
:10029000019B01330193019B7F2BEDDD0023009334
:1002A00008E0009B03F60113064A0021D154009B8D
:1002B00001330093009B012BF3DD00BF03B05DF819
:1002C00004FB00BFA007002008B540F60311034857
:1002D00000F0B4F900F004F800BF08BDA00700204A
:1002E00008B50121024800F0A9F900BF08BD00BF10
:1002F0007006002008B50121024800F09FF900BFF8
:1003000008BD00BF0000002000B583B0FFF7F2FF7A
:1003100000238DF803300023019310E0019A134667
:10032000DB0013445B000233084A13449DF80310BA
:100330001022184604F0EAF9019B01330193019B56
:100340007F2BEBDD00BF03B05DF804FBA0070020AE
:10035000014B1846704700BFA007002000B585B0CC
:1003600003468DF807300B468DF8063013468DF89E
:1003700005309DF80730012B07D0022B08D0002B49
:1003800000D03DE1A04B039305E0A04B039302E0B6
:100390009F4B039300BF039B4FF4C0625A61039BC2
:1003A00001221A60039B4FF44062DA60039B002233
:1003B000DA64039B02225A65039B5B6D43F00802DB
:1003C000039B5A65039B5B6D9DF8062012021A433E
:1003D000039B5A6501238DF80B3004238DF80A30F6
:1003E00001238DF8093001238DF808309DF8053080
:1003F000002B0FD0039B1422DA6004238DF80B30FE
:1004000001238DF80A3004238DF8093004238DF878
:10041000083002E0039B0522DA60039B41F6F97283
:100420009A649DF80730012B66D0022B00F0A6805D
:10043000002B00D0E4E09DF80630012B21D0022BE8
:100440003CD0002B00D056E09DF80B2000230A2161
:10045000042003F077F89DF80A2000230B210420E4
:1004600003F070F89DF8092000230D21042003F00B
:1004700069F89DF8082000230C21042003F062F89D
:1004800039E09DF80B2000230721042003F05AF8DF
:100490009DF80A2000230621042003F053F89DF85C
:1004A000092000230421042003F04CF89DF80820C3
:1004B00000230521042003F045F81CE09DF80B20E3
:1004C00000230B21022003F03DF89DF80A200023B1
:1004D0000A21022003F036F89DF8092000230821A4
:1004E000022003F02FF89DF80820002309210220A4
:1004F00003F028F800BF83E09DF80630002B02D0FF
:10050000012B1DD039E09DF80B2000230021022093
:1005100003F018F89DF80A2000230121022003F0BF
:1005200011F89DF8092000230821012003F00AF8A2
:100530009DF8082000230721012003F003F81CE0A8
:100540009DF80B2000230021032002F0FBFF9DF803
:100550000A2000230121032002F0F4FF9DF8092066
:1005600000230321032002F0EDFF9DF80820002363
:100570000221032002F0E6FF00BF41E09DF80630B3
:10058000002B02D0012B1DD039E09DF80B20002359
:100590000221022002F0D6FF9DF80A200023032149
:1005A000022002F0CFFF9DF8092000230521022040
:1005B00002F0C8FF9DF8082000230421022002F069
:1005C000C1FF1CE09DF80B2000230321012002F055
:1005D000B9FF9DF80A2000230421012002F0B2FF98
:1005E0009DF8092000230621012002F0ABFF9DF8B1
:1005F000082000230521012002F0A4FF00BF00BF56
:1006000005B05DF804FB00BF00C0004000C400401E
:1006100000C8004008B50121064802F045F8012154
:10062000054802F041F8012201210120FFF796FE62
:1006300000BF08BD0012040000D2040000B583B062
:1006400001900091009B1946019800F005F800BF49
:1006500003B05DF804FB00BF00B585B001900091C8
:100660001C4B0293012304220321032002F06AFFA2
:100670000023039318E000BF029B1B6903F04003B3
:10068000002BF9D0019B002B08D0019B1B781A4648
:10069000029B5A63019B0133019302E0029B0022FB
:1006A0005A63039B01330393039A009B9A42E2DB54
:1006B000002304220321032002F044FF00BF029B19
:1006C0001B6903F02003002BF9D000BF05B05DF8D3
:1006D00004FB00BF00C4004082B003468DF8073021
:1006E0009DF80730613B002B04DB9DF807307A3B17
:1006F000002B1FDD9DF80730413B002B04DB9DF8EC
:1007000007305A3B002B15DD9DF80730303B002B9E
:1007100004DB9DF80730393B002B0BDD9DF80730DB
:100720003A2B07D09DF807302E2B03D09DF80730C9
:10073000252B01D1012300E0002303F00103DBB2EC
:10074000184602B0704700BF2DE9F0438BB002AFEE
:10075000F860B9607A603B606B461E462023FB61FF
:10076000F9694B1EBB610B461A464FF000034FEA76
:10077000C30949EA52794FEAC2080B461A464FF0BC
:100780000003DD0045EA5275D4000B460733DB0851
:10079000DB00ADEB030D02AB00337B6107F14403DB
:1007A0003B6178693B69FA6804F09EF87869F969F9
:1007B0003B6C01933B6800937B68BA6800F006F8D5
:1007C000B54600BF2437BD46BDE8F08300B589B00B
:1007D00005900491039202930A9B7F2B27D8002354
:1007E00007931FE0029B7F2B23D8079B059A134496
:1007F0001B78002B1DD0079B059A13441B78202BD8
:100800000AD0079B059A134418780B9B00930A9B08
:10081000029A039900F012F8029B08330293079B97
:1008200001330793079A049B9A42DBD302E000BF8F
:1008300000E000BF09B05DF804FB00BF00B58BB05D
:1008400002910192009303468DF80F309DF80F300E
:100850001846FFF741FF034683F00103DBB2002B8C
:100860007FD10DF112029DF80F301146184600F0AD
:100870007DF80790019BDB080693009A1346DB0086
:1008800013445B001A46069B13440233059300236E
:1008900009935BE00C9B002B45D0099A1346DB00C3
:1008A00013445B001A46059B13441A46029B1344EB
:1008B00000221A70099B079A13441B788DF8133095
:1008C000002308932BE0099A1346DB0013445B00D6
:1008D0001A46059B13441A46029B9918099A134617
:1008E000DB0013445B001A46059B13441A46029B27
:1008F00013441B785AB29DF81300089B40FA03F387
:1009000003F00100089BC3F1070300FA03F35BB295
:1009100013435BB2DBB20B70089B01330893089B57
:10092000072BD0DD0FE0099A1346DB0013445B0070
:100930001A46059B13441A46029B1344099A0799C9
:100940000A4412781A70099B01330993009BC3F182
:100950008003082B28BF08231A46099B9A4299D87E
:1009600000E000BF0BB05DF804FB00BF00B587B02E
:10097000034600918DF807309DF80730303B002B7F
:100980001ADB9DF80730393B002B15DC9DF807304A
:10099000163B05939DF80730A3F13002314B13400D
:1009A000002B03DA013B63F001030133DBB29B0050
:1009B000DAB2009B1A704CE09DF80730613B002BC7
:1009C0001ADB9DF807307A3B002B15DC9DF80730C9
:1009D000613B05939DF80730A3F16102214B134061
:1009E000002B03DA013B63F001030133DBB29B0010
:1009F000DAB2009B1A702CE09DF80730413B002BC7
:100A00000EDB9DF807307A3B002B09DC9DF80730A0
:100A10002033DBB200991846FFF7A8FF03461CE01D
:100A200000230493104B03930FE0039B1B789DF866
:100A300007209A4203D1049B2433059309E0049BC9
:100A400001330493039B01330393039B1B78002B17
:100A5000EBD1059BDB00054A1344184607B05DF84F
:100A600004FB00BF01000080DC4F000004000020F8
:100A700082B003468DF8073007499DF907305B09BE
:100A80009DF8072002F01F02012000FA02F241F84F
:100A9000232000BF02B0704700E100E082B00346AF
:100AA0008DF8073008499DF907305B099DF807204C
:100AB00002F01F02012000FA02F2603341F8232005
:100AC00000BF02B0704700BF00E100E0044A044BE1
:100AD0001B6923F00403136130BF00BF704700BFE0
:100AE00000ED00E082B001900091019B009A9A64B1
:100AF00000BF02B0704700BF82B001900091019B1F
:100B0000DA6C009BDB431A40019BDA6400BF02B041
:100B1000704700BF82B001900091019BDA6C009B8E
:100B20001A43019BDA6400BF02B0704782B00190A3
:100B3000019B1B6C184602B0704700BF00B5C3B0E4
:100B400000F02AF900F036F8022000F025FA012121
:100B5000012000F0E3FA00F009FAFFF7B7FF134BAA
:100B600093F80C31DBB2002B08D0104B002283F835
:100B70000C21132319460E4800F080F80B4BD3F8D4
:100B80000431013BDBB2094AD35CDBB22E2BE4D14A
:100B900001AB0021184600F0BDF803464193419A8D
:100BA00001AB1146184600F069F8D6E7A8100020FE
:100BB000E44F000008B501212D4801F075FD012327
:100BC00004220221042002F0BDFC002301220321A3
:100BD000042002F0B7FC274B00221A70254B00229C
:100BE0005A60244B4FF416529A60224B00221A731B
:100BF000204B05225A731F4B0022DA811D4B4FF404
:100C000040521A821B4B00229A741A4B0022DA744B
:100C1000184B00221A75184B1B681649184602F02B
:100C20001BFE154B1B6841F6FF711846FFF75AFF74
:100C3000114B1B6804211846FFF76CFF1620FFF7C5
:100C40002DFF1720FFF72AFF1620FFF711FF1720AF
:100C5000FFF70EFF084B1B6840F203325A65064B44
:100C60001B680521184602F0C1FD00BF08BD00BF8A
:100C700000D20400400100203C01002000B585B0F6
:100C80000190009100230393009BB3F5807F38D837
:100C90001E4BD3F80821009B1344B3F5807F1DD968
:100CA00000BF1A4BD3F80821009B1344B3F5807F93
:100CB000F7D813E0154BD3F804310199039A0A448D
:100CC0001178124AD154114BD3F804310133DBB2FD
:100CD0000E4AC2F80431039B01330393039A009B2D
:100CE0009A42E7D3094BD3F80821009B1344074AE3
:100CF000C2F80831064B1B6802211846FFF70AFFAD
:100D000000E000BF05B05DF804FB00BF74060020E2
:100D10003C01002084B001900091002303931D4BFF
:100D2000D3F80821009B9A4206D200BF194BD3F892
:100D30000821009B9A42F9D3009B002B19D1154B37
:100D4000D3F80831009314E0019A039B1344114A2D
:100D5000D2F800210F498A5CD2B21A700D4BD3F839
:100D600000310133DBB20B4AC2F80031039B01337F
:100D70000393039A009B9A42E6D3064BD3F80821CB
:100D8000009BD31A034AC2F80831039B184604B0EB
:100D9000704700BFA810002008B50121044801F0E9
:100DA00083FC0121034801F07FFC00BF08BD00BFA8
:100DB000408104000042040000B583B0114B1B6861
:100DC0001B6903F08003002B17D00E4B1B681846DD
:100DD00002F052FE03468DF8073001230422012160
:100DE000042002F0AFFB084B1B689DF8072010465B
:100DF000984704210548FFF775FE00BF03B05DF872
:100E000004FB00BF3C010020A410002000E40040CF
:100E100008B51E48FFF78AFE1D4B1B681B6903F0CF
:100E20004003002B2FD0012304220021042002F0D4
:100E300089FB184BD3F80831002B19D0144B1868D4
:100E4000144BD3F80031134AD35CDBB2194602F0DD
:100E500023FE104BD3F800310133DBB20D4AC2F848
:100E600000310C4BD3F80831013B0A4AC2F8083173
:100E7000084BD3F80831002B05D1054B1B68022124
:100E80001846FFF739FE00BF08BD00BF00E4004070
:100E90003C0100207406002082B00190024A019BB0
:100EA000136000BF02B07047A410002082B0034658
:100EB00000918DF807309DF80730002B12D09DF877
:100EC0000730012B0ED09DF80730022B0AD09DF879
:100ED0000730032B06D09DF80730042B02D09DF875
:100EE0000730052B08499DF807200120009B00FAD8
:100EF00003F318461346DB0013449B000B441433E2
:100F0000186000BF02B070470060004082B0034626
:100F100000918DF807309DF80730002B12D09DF816
:100F20000730012B0ED09DF80730022B0AD09DF818
:100F30000730032B06D09DF80730042B02D09DF814
:100F40000730052B08499DF807200120009B00FA77
:100F500003F318461346DB0013449B000B44103385
:100F6000186000BF02B070470060004008B5094B30
:100F70001B68022B01D100F011FB064B1B68012BF3
:100F800001D100F0C7FD012000F04CF80023184605
:100F900008BD00BF8407002000B585B00190002384
:100FA0008DF80F30019B03F00203002B0AD0194B80
:100FB00002221A60042000F035F800F0C1FB03465D
:100FC0008DF80F30019B03F00103002B0AD0114B69
:100FD00001221A60032000F025F800F037FE0346D6
:100FE0008DF80F309DF80F3083F00103DBB2002B3A
:100FF00000D0FEE70021084800F0B4FA074800F0EE
:101000009BFA03461A46064B1A800023184605B081
:101010005DF804FB84070020020000802C000080A3
:101020009007002000B585B003468DF807300023F7
:10103000039301212A4801F037FB2A4A9DF8073023
:1010400013709DF80730013B032B3FD801A252F8E3
:1010500023F000BF651000007F1000009910000011
:10106000B3100000012304220F21012002F06AFACC
:10107000012304220D21032002F064FA2AE0002358
:1010800004220F21012002F05DFA002304220D2129
:10109000032002F057FA1DE0012304220F21012052
:1010A00002F050FA002304220D21032002F04AFA34
:1010B00010E0002304220F21012002F043FA012353
:1010C00004220D21032002F03DFA03E04FF0FF332C
:1010D000039300BF039B184605B05DF804FB00BFF7
:1010E00000D204008807002000B583B003468DF8C5
:1010F00007309DF80730002B04D00121064800F08E
:1011000031FA03E00021044800F02CFA00231846CD
:1011100003B05DF804FB00BF1400008000B585B08B
:1011200003460A468DF8073013468DF80630EB4823
:1011300000F002FA0346ADF80E309DF80630002BA1
:1011400000F029819DF807300D2B00F2E78101A204
:1011500052F823F08D1100009B110000C111000016
:10116000E7110000F511000039120000951200008F
:10117000A3120000CF120000DD120000F7120000E1
:10118000231300004F1300005D130000BDF80E3064
:1011900043F40053ADF80E30C0E1BDF80E3023F437
:1011A0000053ADF80E30BDF80E3023F40063ADF8F7
:1011B0000E30BDF80E3043F48053ADF80E30ADE183
:1011C000BDF80E3023F40053ADF80E30BDF80E30EC
:1011D00023F48053ADF80E30BDF80E3043F40063B5
:1011E000ADF80E309AE1BDF80E3043F48063ADF8EF
:1011F0000E3093E1012000F0F3FCBDF80E3043F413
:101200008073ADF80E30BDF80E3043F40073ADF8C6
:101210000E30BDF80E3023F00403ADF80E30BDF8EB
:101220000E3023F04003ADF80E30BDF80E3023F041
:101230000203ADF80E3071E1002000F0D1FCBDF8E2
:101240000E3043F00803ADF80E30BDF80E3043F019
:101250001003ADF80E30BDF80E3043F48073ADF8D6
:101260000E30BDF80E3023F40073ADF80E30BDF82B
:101270000E3023F00403ADF80E30BDF80E3023F02D
:101280004003ADF80E30BDF80E3023F00203ADF888
:101290000E3043E1BDF80E3043F08003ADF80E3060
:1012A0003CE1BDF80E3043F04003ADF80E30BDF820
:1012B0000E3023F48073ADF80E30BDF80E3023F4F9
:1012C0000073ADF80E30032000F08AFC26E1BDF873
:1012D0000E3043F02003ADF80E301FE1BDF80E30A4
:1012E00023F01003ADF80E30BDF80E3043F00803C4
:1012F000ADF80E3012E1BDF80E3043F00403ADF846
:101300000E30BDF80E3023F48073ADF80E30BDF80A
:101310000E3023F40073ADF80E30032000F060FCB3
:10132000FCE0BDF80E3043F00203ADF80E30BDF81E
:101330000E3023F48073ADF80E30BDF80E3023F478
:101340000073ADF80E30032000F04AFCE6E0BDF873
:101350000E3043F00103ADF80E30DFE0022000F064
:101360003FFCBDF80E3043F48073ADF80E30BDF88D
:101370000E3023F00403ADF80E30BDF80E3023F02C
:101380004003ADF80E30BDF80E3023F00203ADF887
:101390000E3000BFC2E09DF807300D2B00F2BE807A
:1013A00001A252F823F000BFE1130000EF13000088
:1013B000091400002314000031140000511400002F
:1013C0008914000097140000A5140000B314000055
:1013D000CD140000E1140000EF140000FD14000023
:1013E000BDF80E3023F40053ADF80E3096E0BDF892
:1013F0000E3043F40053ADF80E30BDF80E3023F438
:101400008053ADF80E3089E0BDF80E3043F4005340
:10141000ADF80E30BDF80E3023F40063ADF80E3099
:101420007CE0BDF80E3023F48063ADF80E3075E03B
:10143000BDF80E3023F48073ADF80E30BDF80E30D9
:1014400023F40073ADF80E30032000F0C9FB65E013
:10145000BDF80E3023F00803ADF80E30BDF80E30A5
:1014600023F01003ADF80E30BDF80E3023F4807376
:10147000ADF80E30BDF80E3023F40073ADF80E3029
:10148000032000F0ADFB49E0BDF80E3023F08003EF
:10149000ADF80E3042E0BDF80E3023F04003ADF859
:1014A0000E303BE0BDF80E3023F02003ADF80E30D7
:1014B00034E0BDF80E3023F01003ADF80E30BDF867
:1014C0000E3023F00803ADF80E3027E0BDF80E30E3
:1014D00023F00403ADF80E3020E000BF18000080B8
:1014E000BDF80E3023F00203ADF80E3016E0BDF863
:1014F0000E3023F00103ADF80E300FE0BDF80E30D2
:1015000023F48073ADF80E30BDF80E3023F4007371
:10151000ADF80E30032000F063FB00BFBDF80E30C5
:101520001946044800F01EF80023184605B05DF87F
:1015300004FB00BF1800008000B583B00190084B89
:101540001B68022B03D1019B1B889BB203E001980F
:1015500000F0A2FB0346184603B05DF804FB00BF91
:101560008407002000B583B001900B46ADF802302F
:10157000094B1B68022B04D1019BBDF802201A8085
:1015800005E0BDF802301946019800F0C5FB0023C4
:10159000184603B05DF804FB8407002008B500235B
:1015A00000220021002001F0CDFF002300220121B4
:1015B000002001F0C7FF002300220221002001F0DB
:1015C000C1FF002300220321002001F0BBFF002304
:1015D00000220421002001F0B5FF00230022052194
:1015E000002001F0AFFF002300220621002001F0BF
:1015F000A9FF002300220F21002001F0A3FF0023F8
:1016000000220021012001F09DFF00230022012182
:10161000012001F097FF002300220221012001F0A8
:1016200091FF002300220321012001F08BFF002302
:1016300000220421012001F085FF00230022052162
:10164000012001F07FFF002300220621012001F08C
:1016500079FF002300220921032001F073FF0023FA
:1016600000220A21032001F06DFF002300220B213C
:10167000032001F067FF002300220C21032001F06A
:1016800061FF002300220821042001F05BFF0023FA
:1016900000220921042001F055FF002300220A2125
:1016A000042001F04FFF002300220B21042001F051
:1016B00049FF002300220C21042001F043FF0023F6
:1016C00000220D21042001F03DFF002300220E2105
:1016D000042001F037FF002300220F21042001F035
:1016E00031FF002300220221052001F02BFF0023FF
:1016F00000220821052001F025FF002300220921F6
:10170000052001F01FFF002300220B21022001F021
:1017100019FF002300220621052001F013FF0023FA
:1017200000220721052001F00DFF01F09DFB0021A3
:10173000024800F0B9FF00BF08BD00BF005302001F
:1017400000B595B06B4650220021184602F0DEFF2E
:1017500002230393022304930123069301230E9390
:1017600001238DF84C300121C04800F09DFF01217C
:10177000BF4800F099FF002304220021002001F05F
:10178000E1FE002304220121002001F0DBFE002302
:1017900004220221002001F0D5FE002304220321AF
:1017A000002001F0CFFE002304220421002001F0DC
:1017B000C9FE002304220521002001F0C3FE0023FE
:1017C00004220621002001F0BDFE002304220F2187
:1017D000002001F0B7FE002304220021012001F0C7
:1017E000B1FE002304220121012001F0ABFE002301
:1017F00004220221012001F0A5FE0023042203217E
:10180000012001F09FFE002304220421012001F0A9
:1018100099FE002304220521012001F093FE0023FC
:1018200004220621012001F08DFE0123042209215A
:10183000032001F087FE012304220A21032001F086
:1018400081FE012304220B21032001F07BFE0123F2
:1018500004220C21032001F075FE0023042208213C
:10186000042001F06FFE002304220921042001F06E
:1018700069FE002304220A21042001F063FE0023F4
:1018800004220B21042001F05DFE002304220C2120
:10189000042001F057FE002304220D21042001F052
:1018A00051FE002304220E21042001F04BFE0023F0
:1018B00004220F21042001F045FE00230122022111
:1018C000052001F03FFE002304220821052001F03D
:1018D00039FE002304220921052001F033FE0023F4
:1018E00004220B21022001F02DFE002304220621F8
:1018F000052001F027FE002304220721052001F026
:1019000021FE082303930823049301238DF800305C
:1019100001238DF8023001238DF8073001238DF863
:10192000083000238DF8093001238DF81C30012385
:101930008DF82D304FF4003310934FF4B80311930A
:101940004FF0805312930023069300230593042342
:10195000099300230A930023089302230D93002385
:101960000E9300230C936B46184601F0D1F8022326
:1019700003930223049301238DF8003001238DF893
:10198000023000238DF8073001238DF81C3000232E
:101990008DF82D3001238DF808300323069303239F
:1019A00005930723099303230A930323089307232B
:1019B0000D9303230E9303230C936B46184601F0FB
:1019C000A7F804230393042304930123069301231C
:1019D00005930723099303230A9303230893022300
:1019E0000D9301230E9301230C936B46184601F0CF
:1019F0008FF8102303931023049301238DF80030F4
:101A000001238DF8023001238DF8073001238DF872
:101A10001C3000238DF82D3001238DF80830002371
:101A20000693002305930623099300230A930023BA
:101A3000089305230D9300230E9300230C936B460C
:101A4000184601F065F80120FFF74EFB4FF0004308
:101A50009B889BB24EF63272934201D0002300E085
:101A60000123184615B05DF804FB00BF00530200C7
:101A700000D2040000B585B003468DF807300B4650
:101A80008DF806301346ADF8043005210220FFF72B
:101A90000DFA9DF9073003F003035AB29DF80630A2
:101AA000DB005BB213435BB2DBB21946184801F0AE
:101AB000F3FF174801F0E0FFBDF80430DBB2194630
:101AC000134801F0E9FF124801F0D6FF0346ADF8D4
:101AD0000E30BDF804301B0A9BB2DBB219460C482D
:101AE00001F0DAFF0A4801F0C7FF03461B021AB2F1
:101AF000BDF90E3013431BB2ADF80E3005210220A4
:101B0000FFF704FABDF80E30184605B05DF804FB87
:101B100000C8004008B5104801F05AFF0023002219
:101B20000221022001F00EFD0023002203210220E9
:101B300001F008FD002300220421022001F002FD33
:101B4000002300220521022001F0FCFC00210348B3
:101B500000F0AAFD00BF08BD00C80040002204003C
:101B600030B587B0194B6C461D460FCD0FC495E8B4
:101B7000030084E803000121154800F095FD0023CF
:101B800004220221022001F0DDFC002301220321B6
:101B9000022001F0D7FC002304220421022001F0DE
:101BA000D1FC012304220521022001F0CBFC094BCA
:101BB0000193094B02936B461946084801F0A4FEB5
:101BC000064B0B225A6500BF07B030BDF84F00002E
:101BD00000220400006CDC02C0CF6A0000C8004094
:101BE00000B583B003468DF807309DF80730032B0E
:101BF00021D801A252F823F0091C0000131C000098
:101C00001D1C0000271C000000210D48FFF7AAFC46
:101C100011E001210A48FFF7A5FC0CE00221084869
:101C2000FFF7A0FC07E0074801F0D2FE00210648BC
:101C300000F03AFD00BF00BF03B05DF804FB00BF39
:101C40001A00008000C400400012040000B583B0F8
:101C500001210E4800F028FD01210D4800F024FD6F
:101C6000FFF77EFF0B4800F017F80346ADF806308B
:101C7000BDF806304EF63272934201D0002300E0E8
:101C80000123184603B05DF804FB00BF4081040047
:101C900000D204000400008000B585B001901D4B07
:101CA0001B68019A9A421BD0019B9BB21A460021E5
:101CB0000020FFF7DFFE019B1B0C9BB2DBB29BB247
:101CC0001A4600210120FFF7D5FE019B9B0E9BB217
:101CD00003F003039BB21A4600210220FFF7CAFE5D
:101CE000002201210320FFF7C5FE0346ADF80E30A8
:101CF000002201210320FFF7BDFE0346ADF80E30A0
:101D0000044A019B1360BDF80E30184605B05DF81B
:101D100004FB00BF8C07002000B583B001900B4688
:101D2000ADF80230174B1B68019A9A421BD0019BF9
:101D30009BB21A4600210020FFF79CFE019B1B0C62
:101D40009BB2DBB29BB21A4600210120FFF792FE44
:101D5000019B9B0E9BB203F003039BB21A4600212A
:101D60000220FFF787FEBDF802301A46002103204B
:101D7000FFF780FE034A019B136000BF03B05DF8CC
:101D800004FB00BF8C07002010B586B0FEF7BCFA3C
:101D9000FEF7DEFA014601230093002300222848C3
:101DA000FEF7D2FC002305931FE0FEF7D1FA059B56
:101DB0005A1C1346DB00134405331C46214A059B7D
:101DC00012F8133019461F4A059B5B0013445B78D9
:101DD00002930191012300932346002201461A48F1
:101DE000FEF7B2FC059B01330593059A174B1B6860
:101DF0009A42DAD3002304931AE0FEF7A9FA0146C7
:101E0000049BDB001846124B1B781A46049BC3F157
:101E1000070342FA03F303F0010301930123009344
:101E2000782302460B48FEF78FFC049B0133049392
:101E3000049B072BE1DDFEF747FA00BF06B010BD9B
:101E400010500000C011002024500000D0110020CC
:101E5000D41100203450000000B583B0002301935A
:101E600012E0144A019B5B00134400225A70114A8D
:101E7000019B002102F813100F4A019B13440A2210
:101E80001A70019B01330193019B072BE9DD0B4B7A
:101E900000221A60FEF738FAFEF75AFA802345222C
:101EA000074900F0CDF8FEF70FFA00BF03B05DF868
:101EB00004FB00BFC0110020B8110020D011002089
:101EC000580100200000000010B584B003468DF8D2
:101ED00007309DF90730002B02DAFFF7BDFF46E01F
:101EE0009DF807301B09DBB203F007038DF80E30B5
:101EF0009DF80E30224AD35C0A2B10D19DF80E308B
:101F0000204A1268D1B21E4AD1541E4B1B685A1C7B
:101F10001C490A601C499DF80E2001F813209DF809
:101F2000073003F00F03184601F01CFF12A3D3E99A
:101F3000002301F07DFF03460C461846214602F0BF
:101F400089F903468DF80F309DF80F30642B02D9C4
:101F500064238DF80F309DF80E30094AD35C0A4A8D
:101F60005B0013449DF80F205A70FFF70DFF04B07B
:101F700010BD00BFAFF30080AE47E17A14AE1A4047
:101F8000B8110020D0110020C011002000B583B08E
:101F900003468DF807300A4B1B789DF807209A42BC
:101FA00009D0074A9DF8073013709DF8073018468E
:101FB000FFF78AFF00E000BF03B05DF804FB00BF3D
:101FC000D411002008B5FEF74BF900BF08BD00BFD3
:101FD00008B50348FEF760FFFEF7B0FD00BF08BD7F
:101FE0008D1F000008B5FFF7EDFFFFF735FFFFF786
:101FF000EFFF024802F082FB00BF08BDC0110020C5
:1020000000B583B00190019802F018FB0346184612
:1020100002F04AFA03460199184602F0DDFA034637
:10202000002B04D0019802F009FB034604E001985C
:1020300002F004FB03460133184603B05DF804FBCD
:1020400010B58CB003900291019200930323089382
:102050000023079300230B9300230A930023099383
:1020600047E0089A0A9B13440693079A0B9B134474
:102070000593059B7F2B56DC069B0F2B35DC069BBF
:10208000991C059A1346DB0013445B000B441A4667
:10209000039B1344099A02990A4412781A70099B07
:1020A0005C1C019801F05EFE4FF00002204B01F035
:1020B000E9FF02460B461046194602F0EBF80346CC
:1020C0001846FFF79DFF034694FBF3F203FB02F370
:1020D000E31A002B05D10B9B01330B9300230A93CA
:1020E00004E00A9B01330A9300E000BF099B01331F
:1020F0000993019801F036FE4FF000020C4B01F0FD
:10210000C1FF03460C461846214602F0C3F80346B9
:102110001846FFF775FF0246009B03FB02F2099B7E
:102120009A429EDC00E000BF00BF0CB010BD00BFB3
:1021300000002040064880470649074A074B9A425C
:10214000BEBF51F8040B42F8040BF8E7FDF7F4FFAB
:10215000AD2200007C50000000000020540600204A
:10216000FEE700BF034BDB6C03F07F431B0EDBB2CB
:1021700018467047B081E00F00B583B000F016F844
:102180000190084B5B6803F00F03019A22FA03F3F6
:102190000193054A019B1360019B184603B05DF84B
:1021A00004FB00BF00800C40E005002000B583B0B8
:1021B000334BDB6A03F47053B3F5805F0AD0B3F599
:1021C000005F03D0B3F5006F08D00BE02D4B1B6808
:1021D000019347E04FF40043019343E02A4B1B680F
:1021E00001933FE0264BDB6803F4E063B3F5007F27
:1021F0001BD0B3F5007F05D8002B24D0B3F5807F2A
:1022000016D02BE0B3F5806F09D0B3F5A06F03D0E3
:10221000B3F5407F06D021E01C4B019321E01C4B1D
:1022200001931EE01B4B01931BE01B4B019318E035
:10223000FFF798FF0346122B02D9184B019310E0C9
:10224000174B01930DE0FFF78DFF0346122B02D9C8
:10225000144B019305E0144B019302E0002301931A
:1022600000BF00BF064B1B6803F4E0339B0B013338
:10227000019AB2FBF3F3184603B05DF804FB00BF0C
:1022800000800C40DC050020D8050020003FAB0199
:10229000406F4001809FD500C0D8A70040B56400C2
:1022A000C0CF6A00804F120040420F0000BF70474D
:1022B0004FF40043184670474FF47A73184670473E
:1022C000014B1B6818467047DC05002086B0039060
:1022D00002910192039B03F10473DA00029B134401
:1022E0009B000593059B019A1A6000BF06B07047DA
:1022F00084B001900091019B03F10473DA00009B0C
:1023000013449B000393039B1B68184604B070475B
:1023100084B00190019B002B03D0019BB3F5004FCB
:1023200000BF019BB3FA83F3C3F11F030393039B25
:10233000184604B0704700BF034BDB6C03F07F43CB
:102340001B0EDBB218467047B081E00F034BDB6C0D
:1023500003F47F031B0CDBB218467047B081E00F1B
:1023600000B583B0FFF7F2FF03464A2B04D0792B68
:1023700002D0482B27D028E0164B1B699BB203F0F4
:102380003F039BB21B02ADF80630124B9B6903F072
:10239000F0039AB2BDF806301343ADF806300D4B8A
:1023A000DB6903F0F0031B099AB2BDF80630134352
:1023B000ADF80630BDF80630B3F5017F01D3064B0A
:1023C00004E0064B02E0054B00E00023184603B092
:1023D0005DF804FBD0FF0FE000366E010048E80115
:1023E00000B585B0019001230393FFF7B9FF0246C2
:1023F000019B9A4204D300230393002302930BE032
:10240000FFF7AEFF03465A00019B9A4202D3012315
:10241000029301E002230293039A1E210748FFF76B
:1024200055FF0649054B5B6823F48072029B1B0233
:1024300013434B6000BF05B05DF804FB00800C4007
:1024400000B583B01E210448FFF752FF0190019BA5
:10245000184603B05DF804FB00800C4000B583B063
:10246000214B5B6903F4E063B3F5007F1CD0B3F547
:10247000007F05D8002B25D0B3F5807F1FD02AE040
:10248000B3F5C06F24D0B3F5E06F1ED0B3F5407F35
:1024900021D1FFF751FF0346122B02D9134B0193B1
:1024A0001CE0134B019319E0FFF746FF0346122B84
:1024B00002D9104B019311E00F4B01930EE00F4B2B
:1024C00001930BE00E4B019308E00E4B019305E0E6
:1024D0000D4B019302E00023019300BF019B1846BE
:1024E00003B05DF804FB00BF00800C40804F120079
:1024F00040420F0040B56400C0CF6A00C0D8A700BA
:10250000809FD500406F4001003FAB0100B583B014
:102510000D4800F01BFA03468DF803309DF8033098
:10252000072B05D0092B07D1FFF740FE019006E0ED
:10253000FFF794FF019002E00023019300BF019B8D
:10254000184603B05DF804FB06000C0010B584B01B
:10255000019000230293019B324A934203D0324AF6
:10256000934200D000E000BF019800F0EFF903466D
:102570000393019B2B4A934203D02B4A934206D0EC
:102580000CE02A4B9B6A03F00303039306E0274BFE
:102590009B6A03F00C039B08039300BF039B032B70
:1025A00038D801A252F823F0DF250000B925000039
:1025B000C1250000C9250000FFF77AFE02902DE03A
:1025C000FFF77EFE029029E0FFF7D6FD0446FFF7F5
:1025D00037FF0346013324FA03F302931EE000237E
:1025E0000293019B0F4A934203D0019B0E4A9342F0
:1025F00013D10E4B9A6A019B0A498B4201D11023D9
:1026000000E0142322FA03F3002B06D0FFF754FE58
:10261000029002E00023029300E000BF029B1846F4
:1026200004B010BD02001A0003001C0000800C4022
:1026300082B00190084B5B6D03F00103002B07D1C2
:1026400000BF054B1A6D019B1340002BF9D100E030
:1026500000BF02B0704700BF00800C4000B583B0DF
:10266000104800F073F903468DF803309DF80330ED
:10267000032B07D0092B09D0022B0BD1FFF720FE2B
:1026800001900AE0FFF714FE019006E0FFF78EFDCF
:10269000019002E00023019300BF019B184603B0A4
:1026A0005DF804FB0723220000B587B001900B46BC
:1026B0008DF8033000230493019B1B0A03F00F03E2
:1026C000013B092B46D801A252F823F0092700004C
:1026D0000F270000F52600005527000055270000B1
:1026E000152700001F270000552700005527000070
:1026F00029270000194B0593194800F03DF80346BF
:102700001846FFF76DFE12E0164B05930FE0164BCF
:1027100005930CE0154B05930123049307E0144B3C
:1027200005931023049302E0124B059300BF019B15
:102730001B0B03F01F030393049B002B02D0049890
:10274000FFF776FF9DF803301A4603990598FFF7C7
:10275000BDFD00E000BF07B05DF804FB40800C4009
:102760000043020008800C4044800C4058800C401C
:1027700060800C4078800C4010B584B00190019BC3
:1027800003F47813B3F5B01F00F0AB80B3F5B01FBE
:102790001AD8B3F5402F00F0BF80B3F5402F08D80A
:1027A000B3F5003F3CD0B3F5802F2DD0002B27D0C0
:1027B000BEE0B3F5801F3CD0B3F5A01F47D0B3F502
:1027C000602F00F0AD80B3E0B3F5081F00F0AC80DF
:1027D000B3F5081F0AD8B3F5D01F25D0B3F5E01F15
:1027E0007AD0B3F5C01F00F08980A1E0B3F5201FB7
:1027F0004ED0B3F5281F62D0B3F5181F35D097E03F
:10280000FFF7D4FC039096E0FFF7D0FC03904C4B0D
:102810009B6803F00F03039A22FA03F303938AE001
:10282000FFF7AAFC039086E04648FFF78FFE03906F
:1028300081E04448FFF78AFE0390414B9B6E03F012
:10284000F0031B09039A22FA03F3039373E03D4854
:10285000FFF77CFE03903A4B9B6E03F470631B0AF8
:10286000039A22FA03F3039365E03648FFF76EFEFE
:102870000390334B9B6E03F440531C0B1020FFF767
:1028800047FD03462344039A22FA03F3039352E0DD
:102890002C48FFF75BFE0390294B9B6E03F44053DB
:1028A0001B0B039A22FA03F30393254BDB6F03F010
:1028B00007030133039AB2FBF3F303933BE0214890
:1028C000FFF744FE03901E4B9B6E03F00303039A35
:1028D00022FA03F303932EE01B48FFF737FE039021
:1028E00029E01948FFF732FE0390154B1B6F03F0E8
:1028F0000303039A22FA03F303931CE01248FFF741
:1029000025FE03900E4B1B6F03F030031B09039A47
:1029100022FA03F303930EE0FFF7F8FD03900AE0B9
:10292000FFF79CFD039006E0FFF798FE039002E09E
:102930000023039300BF039B184604B010BD00BFE3
:1029400000800C4002001A0003001C0084B00190BB
:1029500001238DF80F30019B03F00F030293029BBC
:10296000013B062B00F2A68001A252F823F000BF23
:102970008D290000CB2900000F2A0000B52A000095
:10298000B52A0000532A0000792A00004E4BDB6A6A
:1029900003F47053B3F5805F0AD0B3F5005F03D042
:1029A000B3F5006F08D00BE002238DF80F300BE079
:1029B00003238DF80F3007E004238DF80F3003E078
:1029C00005238DF80F3000BF78E03F4B9B6A03F082
:1029D0000303022B07D0032B09D0012B0BD10323B8
:1029E0008DF80F3012E002238DF80F300EE0062331
:1029F0008DF80F300AE0344B9B6A03F48033002BD0
:102A000003D00A238DF80F3000E000BF56E02E4BB4
:102A10009B6A03F00C03082B07D00C2B09D0042B66
:102A20000BD103238DF80F3012E002238DF80F3005
:102A30000EE006238DF80F300AE0234B9B6A03F467
:102A40008013002B03D00A238DF80F3000E000BF65
:102A500034E01D4B1B6803F08053002B03D0B3F10F
:102A6000805F04D02AE007238DF80F3003E00923AC
:102A70008DF80F3000BF21E0134BDB6A03F46033A5
:102A8000B3F5803F09D0B3F5003F0AD0B3F5004F4E
:102A90000BD109238DF80F300BE002238DF80F3096
:102AA00007E003238DF80F3003E001238DF80F308A
:102AB00000BF03E000238DF80F3000BF9DF80F30FA
:102AC000184604B0704700BF00800C4086B00390E9
:102AD00002910192039B03F10473DA00029B1344F9
:102AE0009B000593059B019A1A6000BF06B07047D2
:102AF00000B583B001900091009A01990348FFF757
:102B0000E5FF00BF03B05DF804FB00BF1480004088
:102B100000B585B00190874B1B680393039B43F07E
:102B200080430393019BD868019B5B781A46002180
:102B300000F0E8FB019BD868019B9B781A460121B5
:102B400000F0E0FB019BD868019BDB781A4602216C
:102B500000F0D8FB019BD868019B1B791A46032122
:102B600000F0D0FB019BD868019B5B791A460421D9
:102B700000F0C8FB019BD868019B9B791A46052190
:102B800000F0C0FB019BDB6803F00203002B2ED09A
:102B9000039A694B13400393019B1B781A46039BCE
:102BA00013430393019B5B7A1B041A46039B134355
:102BB0000393019B9B7A5B041A46039B1343039385
:102BC000019BDB791B061A46039B13430393019B6E
:102BD0001B7A1B031A46039B13430393019B93F831
:102BE0004C30002B03D0039B43F480730393019B71
:102BF000DB6803F00403002B2FD0039A4F4B1340E4
:102C00000393019B1B789B001A46039B134303937A
:102C1000019B5B7A9B041A46039B13430393019B1E
:102C20009B7ADB041A46039B13430393019BDB79D6
:102C30005B061A46039B13430393019B1B7A5B03BA
:102C40001A46039B13430393019B93F84C30002BCC
:102C500003D0039B43F400730393019BDB6803F0F1
:102C60000803002B2FD0039A354B13400393019B8D
:102C70001B781B011A46039B13430393019B5B7A4A
:102C80001B051A46039B13430393019B9B7A5B0529
:102C90001A46039B13430393019BDB799B061A4659
:102CA000039B13430393019B1B7A9B031A46039BCD
:102CB00013430393019B93F84C30002B03D0039BE9
:102CC00043F480630393019BDB6803F01003002B44
:102CD0003AD0039A1B4B13400393019B1B789B0133
:102CE0001A46039B13430393019B5B7A9B051A4689
:102CF000039B13430393019B9B7ADB051A46039BBB
:102D000013430393019BDB79DB061A46039B1343B2
:102D10000393019B1B7ADB031A46039B1343039324
:102D2000019B93F84C30002B0ED0039B43F40063BF
:102D3000039309E000800040FCEEFCFEF3DDF3FDB0
:102D4000CFBBCFFB3F773FF7019BD868019B196A48
:102D5000019B5A6A019B9B6A00F04AF9019BD86863
:102D6000019B93F82C10019B93F82D20019B93F865
:102D70002E3000F0B9F8019BD868019B196B019BBC
:102D80005A6B019B9B6B00F0E3F9019BD868019B98
:102D900093F83C10019B93F83D301A4600F076F909
:102DA000019BD868019B5969019B9B691A4600F0F9
:102DB0005FFA019BDA68019B1B7F1946104600F001
:102DC00015FA284A039B1360019B1B78032B15D827
:102DD00001A252F823F000BFF32D0000E92D0000FE
:102DE000E92D0000F32D000001210520FFF780FEF2
:102DF00004E000210520FFF77BFE00BF1949194BB5
:102E00005B6923F44032019B1B6C13434B611549F2
:102E1000144B5B6923F4F802019B5B6C13434B6119
:102E20001049104B5B6923F0E042019B9B6C1343FC
:102E30004B61039B03F07063002B05D0019BDB7992
:102E400019460720FFF754FE01210020FFF750FE2E
:102E5000019B1B690121184600F010F800BF05B066
:102E60005DF804FB00800040034B00225A61024BD6
:102E700000221A6000BF70470080004000B583B098
:102E800001900B468DF80330019B03F00203002BE9
:102E900005D09DF8033019460120FFF729FE019B5C
:102EA00003F00403002B05D09DF8033019460220DF
:102EB000FFF71EFE019B03F00803002B05D09DF8D1
:102EC000033019460320FFF713FE019B03F01003A4
:102ED000002B05D09DF8033019460420FFF708FEAB
:102EE00000BF03B05DF804FB00B583B00190084655
:102EF00011461A4603468DF803300B468DF8023012
:102F000013468DF80130019B03F00203002B14D00F
:102F10009DF803301A461E213148FFF7D7FD9DF872
:102F200002301A461D212E48FFF7D0FD9DF80130D2
:102F30001A461C212A48FFF7C9FD019B03F0040330
:102F4000002B14D09DF803301A461E212548FFF7A8
:102F5000BDFD9DF802301A461D212248FFF7B6FD3F
:102F60009DF801301A461C211E48FFF7AFFD019B5A
:102F700003F00803002B14D09DF803301A461E21DD
:102F80001948FFF7A3FD9DF802301A461D21164887
:102F9000FFF79CFD9DF801301A461C211248FFF7EF
:102FA00095FD019B03F01003002B14D09DF8033016
:102FB0001A461E210D48FFF789FD9DF802301A467A
:102FC0001D210A48FFF782FD9DF801301A461C2199
:102FD0000648FFF77BFD00BF03B05DF804FB00BFB0
:102FE000088000401C8000402C8000403C80004055
:102FF00086B00390029101920093019B1A02029BFA
:103000001A43009B1B0413430593039B03F0020325
:10301000002B09D01C491C4B9B6823F0031323F49D
:103020007C53059A13438B60039B03F00403002B2E
:1030300009D01549144BDB6923F0031323F47C53A7
:10304000059A1343CB61039B03F00803002B09D0BF
:103050000D490D4BDB6A23F0031323F47C53059ACF
:103060001343CB62039B03F01003002B09D00649E6
:10307000054BDB6B23F0031323F47C53059A1343B6
:10308000CB6300BF06B070470080004000B583B03E
:1030900001900B468DF8033013468DF80230019BEA
:1030A00003F00203002B0DD09DF803301A461D21BA
:1030B0002348FFF70BFD9DF802301A461C212048DB
:1030C000FFF704FD019B03F00403002B0DD09DF8D6
:1030D00003301A461D211B48FFF7F8FC9DF802300B
:1030E0001A461C211748FFF7F1FC019B03F0080367
:1030F000002B0DD09DF803301A461D211248FFF712
:10310000E5FC9DF802301A461C210F48FFF7DEFC53
:10311000019B03F01003002B0DD09DF803301A46DD
:103120001D210A48FFF7D2FC9DF802301A461C21E7
:103130000648FFF7CBFC00BF03B05DF804FB00BFFF
:103140000C800040208000403080004040800040E3
:1031500086B00390029101920093019B1A02029B98
:103160001A43009B1B0413430593039B03F00203C4
:10317000002B09D01C491C4BDB6823F0031323F4FC
:103180007C53059A1343CB60039B03F00403002B8D
:1031900009D01549144B1B6A23F0031323F47C5305
:1031A000059A13430B62039B03F00803002B09D01D
:1031B0000D490D4B1B6B23F0031323F47C53059A2D
:1031C00013430B63039B03F01003002B09D0064944
:1031D000054B1B6C23F0031323F47C53059A134314
:1031E0000B6400BF06B070470080004000B583B09C
:1031F00001900B468DF80330019B03F00203002B76
:1032000006D09DF803301A461C211548FFF75EFCD6
:10321000019B03F00403002B06D09DF803301A46EF
:103220001C211048FFF752FC019B03F00803002B00
:1032300006D09DF803301A461C210B48FFF746FCC8
:10324000019B03F01003002B06D09DF803301A46B3
:103250001C210648FFF73AFC00BF03B05DF804FBF1
:1032600004800040188000402880004038800040E2
:1032700086B0039002910192019B1A02029B1343B4
:103280000593039B03F00203002B09D01C491C4B40
:103290005B6823F4407323F00303059A13434B60E8
:1032A000039B03F00403002B09D01549144B9B69C1
:1032B00023F4407323F00303059A13438B61039BAC
:1032C00003F00803002B09D00D490D4B9B6A23F432
:1032D000407323F00303059A13438B62039B03F0AF
:1032E0001003002B09D00649054B9B6B23F4407358
:1032F00023F00303059A13438B6300BF06B07047A6
:103300000080004000B585B001900B468DF8033079
:1033100013468DF8023000230393002302939FE0AD
:10332000019B03F00203002B03D0514B02930223B5
:103330000393019B03F00403002B03D04D4B029336
:1033400004230393019B03F00803002B03D04A4B93
:10335000029308230393019B03F01003002B03D077
:10336000464B0293102303939DF803300A2B71D828
:1033700001A252F823F000BFA5330000B5330000CE
:10338000C5330000D5330000E5330000F5330000FD
:1033900005340000153400002534000035340000E9
:1033A000453400009DF802301A4604210298FFF7C8
:1033B0008DFB50E09DF802301A4603210298FFF77A
:1033C00085FB48E09DF802301A4602210298FFF77B
:1033D0007DFB40E09DF802301A4601210298FFF77C
:1033E00075FB38E09DF802301A4600210298FFF77D
:1033F0006DFB30E09DF802301A4605210298FFF778
:1034000065FB28E09DF802301A4604211C48FFF7AE
:103410005DFB20E09DF802301A4603211848FFF7B3
:1034200055FB18E09DF802301A4602211448FFF7B8
:103430004DFB10E09DF802301A4601211048FFF7BD
:1034400045FB08E09DF802301A4600210C48FFF7C2
:103450003DFB00E000BF039BDB43019A1340019357
:10346000019B002B7FF45CAF00BF05B05DF804FB4F
:1034700010800040248000403480004044800040A0
:103480007C80004082B0034600918DF807309DF8A3
:103490000730002B12D09DF80730012B0ED09DF87D
:1034A0000730022B0AD09DF80730032B06D09DF879
:1034B0000730042B02D09DF80730052B08499DF8F2
:1034C00007200120009B00FA03F318461346DB0097
:1034D00013449B000B441433186000BF02B07047C4
:1034E0000060004082B0034600918DF807309DF8DF
:1034F0000730002B12D09DF80730012B0ED09DF81D
:103500000730022B0AD09DF80730032B06D09DF818
:103510000730042B02D09DF80730052B08499DF891
:1035200007200120009B00FA03F318461346DB0036
:1035300013449B000B441033186000BF02B0704767
:103540000060004010B584B00291019303468DF8ED
:103550000F3013468DF80E309DF80F30002B12D02F
:103560009DF80F30012B0ED09DF80F30022B0AD0A2
:103570009DF80F30032B06D09DF80F30042B02D09E
:103580009DF80F30052B9DF80E30002B0FD0019BBE
:10359000002B06D09DF80F3002991846FFF7A2FFC6
:1035A00005E09DF80F3002991846FFF76BFF029B6C
:1035B000072B22D8304C9DF80F202F489DF80F1074
:1035C0000B46DB000B449B00034404331968029B49
:1035D0009B000F2000FA03F3DB430B409DF80E0025
:1035E0000299890000FA01F119431346DB001344E4
:1035F0009B0023440433196027E01F4C9DF80F20E3
:103600001D489DF80F100B46DB000B449B00034444
:1036100008331968029B03F18043083B9B000F208D
:1036200000FA03F3DB4319409DF80E00029B03F1FF
:103630008043083B9B0000FA03F319431346DB0069
:1036400013449B002344083319609DF80E30002B6F
:103650000FD1019B002B06D09DF80F300299184620
:10366000FFF740FF05E09DF80F3002991846FFF77D
:1036700009FF00BF04B010BD0060004084B001909D
:103680001C4B5B69DBB203F00F03DBB29B008DF8D0
:103690000F30184B1B6903F0C0039B09DAB29DF889
:1036A0000F3013438DF80F30019B9DF80F209A7057
:1036B000104B1B69DBB203F03F03DAB2019B5A7077
:1036C0000C4B9B69DBB223F00F038DF80F30094BD5
:1036D000DB6903F0F0031B09DAB29DF80F301343E6
:1036E0008DF80F30019B9DF80F201A7000BF04B0B9
:1036F000704700BFD0FF0FE000B587B00390029184
:1037000001928DF80330029B002B03D12548FFF76F
:1037100033F802909DF80330202B0CD0202B02DCD4
:10372000002B05D03BE0402B08D0602B09D036E0C1
:103730001023059308E00823059305E0062305936D
:1037400002E00423059300BF029B9A00059B0199A8
:1037500001FB03F35B0813440493059B019A02FBEE
:1037600003F3049AB2FBF3F30493049B043B049326
:10377000049B9B010493049A0B4B13400493039BFB
:103780001B6823F06002039B1A60039B1A689DF874
:1037900003301A43039B1A60039B049A5A6107B0D3
:1037A0005DF804FB40810400C0FF1F0000B587B036
:1037B000039002910192029B002B03D10A48FEF76D
:1037C000DBFF0290029B5A1E019B5B00B2FBF3F3EE
:1037D0000593059B1B020593039B059A5A6100BF45
:1037E00007B05DF804FB00BF4081040084B0019085
:1037F0000B468DF80330019B124A93420ED0019B79
:10380000114A93420AD0019B104A934206D0019B71
:103810000F4A934202D0019B0E4A934200BF9DF88B
:103820000330DB430393039B03F005030393039BE4
:103830005A00019BDA609DF80320019BDA6000BF0B
:1038400004B0704700C0004000C4004000C8004001
:1038500000E0004000E4004000B583B0019000911A
:10386000019B244A93420ED0019B234A93420AD0E3
:10387000019B224A934206D0019B214A934202D0E7
:10388000019B204A934200BF019800F0A1F8009BE1
:103890009B7C002B05D0019B1B6843F08042019B61
:1038A0001A60009BDB7C002B07D0009B1B7D43F044
:1038B0001003DBB21A46019B9A65009B5B7B1A469C
:1038C000009B1B8A1343009AD2891A43019B5A60BA
:1038D000009B5968009B9A68009B1B7B0198FFF72F
:1038E0000BFF009B1B781A46019BDA6000BF03B0F8
:1038F0005DF804FB00C0004000C4004000C8004068
:1039000000E0004000E4004000B583B00190009169
:10391000019B2C4A934206D0019B2B4A934202D032
:10392000019B2A4A934200BF019800F051F8019B85
:103930001A68009B1B8A43F001039BB21946009B47
:103940009B7B002B02D04FF4806300E000230B43ED
:103950001A43019B1A60019B1A68009B1B7D002B78
:1039600002D04FF0005300E000231A43019B1A607D
:10397000009B9B7C002B07D0009BDB7C43F010035B
:10398000DBB21A46019B9A65009B1B7B43F4805275
:10399000019B5A60009B5968009B9B681A460198DE
:1039A000FFF704FF009B5B7B002B02D0019B1022E2
:1039B000DA60009B1B781A46019BDA6000BF03B0F7
:1039C0005DF804FB00C0004000C4004000C8004097
:1039D00082B00190019B234A93420ED0019B224A60
:1039E00093420AD0019B214A934206D0019B204A70
:1039F000934202D0019B1F4A934200BF019B40F6B5
:103A0000AA62DA60019B00221A60019B41F2050262
:103A10005A60019B00229A60019B00225A61019B1F
:103A20000022DA64019B41F6F9729A64019B00223C
:103A30005A65019B0B4A934202D1019B00221A65F1
:103A4000019B00229A65019B074A934203D0019B88
:103A5000064A934202D1019B0022DA6500BF02B000
:103A6000704700BF00C0004000C4004000C80040D4
:103A700000E0004000E4004082B0019000BF019BE4
:103A80001B6903F08003002BF9D0019BDB69DBB2DB
:103A9000184602B0704700BF82B001900B468DF807
:103AA000033000BF019B1B6903F04003002BF9D0DA
:103AB0009DF80320019B5A6300BF02B0704700BF0E
:103AC00081F0004102E000BF83F0004330B54FEACF
:103AD00041044FEA430594EA050F08BF90EA020F3C
:103AE0001FBF54EA000C55EA020C7FEA645C7FEACF
:103AF000655C00F0E2804FEA5454D4EB5555B8BFF2
:103B00006D420CDD2C4480EA020281EA030382EA62
:103B1000000083EA010180EA020281EA0303362DF4
:103B200088BF30BD11F0004F4FEA01314FF4801CC7
:103B30004CEA113102D0404261EB410113F0004FD9
:103B40004FEA03334CEA133302D0524263EB430390
:103B500094EA050F00F0A780A4F10104D5F1200E2E
:103B60000DDB02FA0EFC22FA05F2801841F1000189
:103B700003FA0EF2801843FA05F359410EE0A5F15D
:103B800020050EF1200E012A03FA0EFC28BF4CF08E
:103B9000020C43FA05F3C01851EBE37101F0004544
:103BA00007D54FF0000EDCF1000C7EEB00006EEB51
:103BB0000101B1F5801F1BD3B1F5001F0CD34908DB
:103BC0005FEA30004FEA3C0C04F101044FEA445232
:103BD00012F5800F80F09A80BCF1004F08BF5FEAB9
:103BE000500C50F1000041EB045141EA050130BD99
:103BF0005FEA4C0C404141EB010111F4801FA4F13C
:103C00000104E9D191F0000F04BF01460020B1FA90
:103C100081F308BF2033A3F10B03B3F120020CDAC8
:103C20000C3208DD02F1140CC2F10C0201FA0CF0A6
:103C300021FA02F10CE002F11402D8BFC2F1200C0B
:103C400001FA02F120FA0CFCDCBF41EA0C019040C1
:103C5000E41AA2BF01EB0451294330BD6FEA04040A
:103C60001F3C1CDA0C340EDC04F11404C4F12002F5
:103C700020FA04F001FA02F340EA030021FA04F307
:103C800045EA030130BDC4F10C04C4F1200220FA5E
:103C900002F001FA04F340EA0300294630BD21FA9C
:103CA00004F0294630BD94F0000F83F4801306BF62
:103CB00081F480110134013D4EE77FEA645C18BF56
:103CC0007FEA655C29D094EA050F08BF90EA020FED
:103CD00005D054EA000C04BF1946104630BD91EAE5
:103CE000030F1EBF0021002030BD5FEA545C05D1E8
:103CF0004000494128BF41F0004130BD14F5800427
:103D00003CBF01F5801130BD01F0004545F0FE419A
:103D100041F470014FF0000030BD7FEA645C1ABFCF
:103D2000194610467FEA655C1CBF0B46024650EA06
:103D3000013406BF52EA033591EA030F41F4002132
:103D400030BD00BF90F0000F04BF0021704730B5B8
:103D50004FF4806404F132044FF000054FF000018D
:103D600050E700BF90F0000F04BF0021704730B54E
:103D70004FF4806404F1320410F0004548BF404223
:103D80004FF000013EE700BF42004FEAE2014FEA78
:103D900031014FEA02701FBF12F07F4393F07F4F53
:103DA00081F06051704792F0000F14BF93F07F4F85
:103DB000704730B54FF4607401F0004521F00041C8
:103DC00020E700BF50EA010208BF704730B54FF04E
:103DD00000050AE050EA010208BF704730B511F053
:103DE000004502D5404261EB41014FF4806404F18B
:103DF00032045FEA915C3FF4DCAE4FF003025FEA0D
:103E0000DC0C18BF03325FEADC0C18BF033202EB94
:103E1000DC02C2F1200300FA03FC20FA02F001FAEE
:103E200003FE40EA0E0021FA02F11444C1E600BF8D
:103E300070B54FF0FF0C4CF4E06C1CEA11541DBF40
:103E40001CEA135594EA0C0F95EA0C0F00F0DEF80B
:103E50002C4481EA030621EA4C5123EA4C5350EAF0
:103E6000013518BF52EA033541F4801143F4801341
:103E700038D0A0FB02CE4FF00005E1FB02E506F0D2
:103E80000042E0FB03E54FF00006E1FB03569CF027
:103E9000000F18BF4EF0010EA4F1FF04B6F5007F2D
:103EA00064F5407404D25FEA4E0E6D4146EB06069F
:103EB00042EAC62141EA55514FEAC52040EA5E5028
:103EC0004FEACE2EB4F1FD0C88BFBCF5E06F1ED8D2
:103ED000BEF1004F08BF5FEA500E50F1000041EB09
:103EE000045170BD06F0004646EA010140EA0200B6
:103EF00081EA0301B4EB5C04C2BFD4EB0C0541EAD8
:103F0000045170BD41F480114FF0000E013C00F3EC
:103F1000AB8014F1360FDEBF002001F0004170BD10
:103F2000C4F10004203C35DA0C341BDC04F1140429
:103F3000C4F1200500FA05F320FA04F001FA05F2B5
:103F400040EA020001F0004221F0004110EBD37082
:103F500021FA04F642EB06015EEA430E08BF20EAAE
:103F6000D37070BDC4F10C04C4F1200500FA04F351
:103F700020FA05F001FA04F240EA020001F00041E3
:103F800010EBD37041F100015EEA430E08BF20EA56
:103F9000D37070BDC4F1200500FA05F24EEA020E9E
:103FA00020FA04F301FA05F243EA020321FA04F0CD
:103FB00001F0004121FA04F220EA020000EBD37084
:103FC0005EEA430E08BF20EAD37070BD94F0000F84
:103FD0000FD101F00046400041EB010111F4801FB8
:103FE00008BF013CF7D041EA060195F0000F18BF69
:103FF000704703F00046520043EB030313F4801FA5
:1040000008BF013DF7D043EA0603704794EA0C0F5E
:104010000CEA135518BF95EA0C0F0CD050EA410674
:1040200018BF52EA4306D1D181EA030101F00041F1
:104030004FF0000070BD50EA410606BF1046194619
:1040400052EA430619D094EA0C0F02D150EA013625
:1040500013D195EA0C0F05D152EA03361CBF104666
:1040600019460AD181EA030101F0004141F0FE4105
:1040700041F470014FF0000070BD41F0FE4141F489
:10408000780170BD70B54FF0FF0C4CF4E06C1CEA89
:1040900011541DBF1CEA135594EA0C0F95EA0C0F3E
:1040A00000F0A7F8A4EB050481EA030E52EA0335F9
:1040B0004FEA013100F088804FEA03334FF080551A
:1040C00045EA131343EA12634FEA022245EA111547
:1040D00045EA10654FEA00260EF000419D4208BFF8
:1040E000964244F1FD0404F5407402D25B084FEAA5
:1040F0003202B61A65EB03055B084FEA32024FF451
:1041000080104FF4002CB6EB020E75EB030E22BFAD
:10411000B61A754640EA0C005B084FEA3202B6EB6D
:10412000020E75EB030E22BFB61A754640EA5C001C
:104130005B084FEA3202B6EB020E75EB030E22BFAC
:10414000B61A754640EA9C005B084FEA3202B6EBAD
:10415000020E75EB030E22BFB61A754640EADC006C
:1041600055EA060E18D04FEA051545EA16754FEACE
:1041700006164FEAC30343EA52734FEAC2025FEAEC
:104180001C1CC0D111F4801F0BD141EA00014FF07B
:1041900000004FF0004CB6E711F4801F04BF01434C
:1041A0000020B4F1FD0C88BFBCF5E06F3FF6AFAE68
:1041B000B5EB030C04BFB6EB020C5FEA500C50F1F8
:1041C000000041EB045170BD0EF0004E4EEA11317B
:1041D00014EB5C04C2BFD4EB0C0541EA045170BD82
:1041E00041F480114FF0000E013C90E645EA060EC6
:1041F0008DE60CEA135594EA0C0F08BF95EA0C0FF4
:104200003FF43BAF94EA0C0F0AD150EA01347FF43B
:1042100034AF95EA0C0F7FF425AF104619462CE712
:1042200095EA0C0F06D152EA03353FF4FDAE104675
:10423000194622E750EA410618BF52EA43067FF4C6
:10424000C5AE50EA41047FF40DAF52EA43057FF456
:10425000EBAE12E74A0011D212F5001211D20DD5C1
:104260006FF47873B3EB62520ED44FEAC12343F07C
:10427000004343EA505323FA02F070474FF0000026
:10428000704750EA013002D14FF0FF3070474FF0D5
:10429000000070474FEA4102B2F1E04324BFB3F59A
:1042A000001CDCF1FE5C0DD901F0004C4FEAC002AD
:1042B0004CEA5070B2F1004F40EB830008BF20F091
:1042C0000100704711F0804F21D113F13872BCBF4B
:1042D00001F00040704741F480114FEA5252C2F1A0
:1042E0001802C2F1200C10FA0CF320FA02F018BFE9
:1042F00040F001004FEAC1234FEAD32303FA0CFC3C
:1043000040EA0C0023FA02F34FEA4303CCE77FEACA
:10431000625307D150EA01331EBF4FF0FE4040F414
:104320004000704701F0004040F0FE4040F40000C3
:10433000704700BF80F0004002E000BF81F0004104
:1043400042001FBF5FEA410392EA030F7FEA226C3B
:104350007FEA236C6AD04FEA1262D2EB1363C1BFCB
:10436000D218414048404140B8BF5B42192B88BF3A
:10437000704710F0004F40F4000020F07F4018BF5D
:10438000404211F0004F41F4000121F07F4118BF7D
:10439000494292EA030F3FD0A2F1010241FA03FC25
:1043A00010EB0C00C3F1200301FA03F100F000430D
:1043B00002D5494260EB4000B0F5000F13D3B0F1D5
:1043C000807F06D340084FEA310102F10102FE2A44
:1043D00051D2B1F1004F40EBC25008BF20F00100B4
:1043E00040EA03007047490040EB000010F4000F62
:1043F000A2F10102EDD1B0FA80FCACF1080CB2EBF5
:104400000C0200FA0CF0AABF00EBC2505242184353
:10441000BCBFD0401843704792F0000F81F40001F8
:1044200006BF80F400000132013BB5E74FEA4103CB
:104430007FEA226C18BF7FEA236C21D092EA030F37
:1044400004D092F0000F08BF0846704790EA010FB1
:104450001CBF0020704712F07F4F04D1400028BFDE
:1044600040F00040704712F100723CBF00F50000C0
:10447000704700F0004343F0FE4040F400007047F6
:104480007FEA226216BF08467FEA236301464202A2
:1044900006BF5FEA412390EA010F40F480007047B5
:1044A0004FF0000304E000BF10F0004348BF40425B
:1044B0005FEA000C08BF704743F0964301464FF097
:1044C00000001CE050EA010208BF70474FF00003F3
:1044D0000AE000BF50EA010208BF704711F0004334
:1044E00002D5404261EB41015FEA010C02BF844604
:1044F0000146002043F0B64308BFA3F18053A3F563
:104500000003BCFA8CF2083AA3EBC25310DB01FAA9
:1045100002FC634400FA02FCC2F12002BCF1004F2D
:1045200020FA02F243EB020008BF20F001007047BE
:1045300002F1200201FA02FCC2F1200250EA4C0012
:1045400021FA02F243EB020008BF20EADC70704758
:104550004FF0FF3C06E000BF4FF0010C02E000BF4F
:104560004FF0010C4DF804CD4FEA40024FEA4103F1
:104570007FEA226C18BF7FEA236C11D001B052EAA7
:10458000530C18BF90EA010F58BFB2EB030088BF6D
:10459000C81738BF6FEAE17018BF40F001007047DC
:1045A0007FEA226C02D15FEA402C05D17FEA236CBE
:1045B000E4D15FEA412CE1D05DF8040B704700BF05
:1045C000844608466146FFE70FB5FFF7C9FF00289C
:1045D00048BF10F1000F0FBD4DF808EDFFF7F4FFD5
:1045E0000CBF012000205DF808FB00BF4DF808ED6E
:1045F000FFF7EAFF34BF012000205DF808FB00BF91
:104600004DF808EDFFF7E0FF94BF012000205DF8B2
:1046100008FB00BF4DF808EDFFF7D2FF94BF012063
:1046200000205DF808FB00BF4DF808EDFFF7C8FF5C
:1046300034BF012000205DF808FB00BF4FEA4002B4
:10464000B2F1FE4F0FD34FF09E03B3EB12620DD9C0
:104650004FEA002343F0004310F0004F23FA02F02A
:1046600018BF404270474FF00000704712F1610FD1
:1046700001D1420205D110F0004008BF6FF00040A8
:1046800070474FF00000704708B5074B044613B160
:104690000021AFF30080054B1868836A03B1984787
:1046A000204600F08DFC00BF0000000038500000E4
:1046B0000E4B70B51E460E4C0025E41AA410A54200
:1046C00004D056F8253098470135F8E700F07AFC19
:1046D000084B094C1E46E41AA4100025A54204D03C
:1046E00056F8253098470135F8E770BD4806002098
:1046F00048060020480600204C060020024B0146D8
:10470000186800F00BB800BF4406002003460244BE
:10471000934202D003F8011BFAE7704738B505460B
:10472000002944D051F8043C0C1F002BB8BFE418FA
:1047300000F0E8F81E4A1368114613B9636014606C
:1047400030E0A3420DD92268A018834201BF186847
:104750005B681218226063600C6023E0A24203D8F9
:1047600013465A68002AF9D118681918A1420BD1CA
:104770002168014458188242196013D110685268A8
:10478000014419605A600DE002D90C232B6009E046
:1047900021686018824201BF1068526809182160C0
:1047A00062605C602846BDE8384000F0ACB838BDB7
:1047B0009807002070B5CD1C25F0030508350C2D99
:1047C00038BF0C25002D064601DBA94202D90C2377
:1047D000336046E000F096F8234B1C681A462146E9
:1047E000A1B10B685B1B0ED40B2B03D90B60CC184B
:1047F000CD501EE08C420BBF63684B681360636052
:1048000018BF0C4615E00C464968E9E7174C2368C9
:104810001BB9304600F02CF820602946304600F0E5
:1048200027F8431C18D0C41C24F00304A0420DD167
:104830002560304600F067F804F10B00231D20F0DE
:104840000700C31A0ED05A42E25070BD211A3046FA
:1048500000F00EF80130EBD10C233360304600F04D
:1048600052F8002070BD00BF980700209407002078
:1048700038B5064C002305460846236000F092FB3D
:10488000431C02D1236803B12B6038BDD81300202C
:1048900030B5141E05469BB0184604DA8B232B60F6
:1048A0004FF0FF301DE04FF40273ADF80C300CBF39
:1048B000234604F1FF33029305934FF6FF730091F3
:1048C0000491ADF80E3002461E9B6946284600F062
:1048D00075F8431CBCBF8B232B6014B1009B0022D6
:1048E0001A701BB030BD000007B5009313460A468E
:1048F000014603480068FFF7CBFF03B05DF804FBF7
:1049000044060020704770472DE9F0478E688246C4
:104910009E420C46914698463ED88A8912F4906F82
:104920003AD02568096902236F1A656905EB4505C8
:1049300095FBF3F57B1C43449D4238BF1D46530550
:104940000FD52946FFF736FF064698B13A4621694A
:1049500000F0D2FAA38923F4906343F08003A3818B
:1049600013E02A4600F0EEFA064670B92169504677
:10497000FFF7D4FE0C23CAF80030A3894FF0FF30B4
:1049800043F04003A381BDE8F08726613E442660E2
:1049900046466561ED1BA560464528BF464649462B
:1049A0003246206800F0B3FAA36800209B1BA36086
:1049B00023681E442660BDE8F08700002DE9F04F13
:1049C0009DB003938B8980461C060D4616460DD577
:1049D0000B695BB94021FFF7EDFE2860286118B92B
:1049E0000C23C8F80030CDE040236B61002309930D
:1049F00020238DF82930DFF89CB130238DF82A3040
:104A000037463C4614F8013B1BB9B7EB060910D0FA
:104A100003E0252BF9D02746F3E74B4632462946DB
:104A20004046FFF771FF013000F0A780099B4B441F
:104A300009933B78002B00F0A08000234FF0FF3259
:104A400004930793059206938DF853301A93012629
:104A5000052221784E4800F041FA671C049B38B1CA
:104A60004B4A3C46801A06FA00F018430490EFE7E0
:104A7000D90644BF20228DF853201A0744BF2B22A9
:104A80008DF8532022782A2A03D0079A00210A2081
:104A90000BE0039A111D12680391002A10DA5242AA
:104AA00043F00200079204900BE027463B78013464
:104AB000303B092B03D800FB02320121F5E701B19D
:104AC00007923B782E2B1ED17B782A2B0AD1039B91
:104AD00002371A1D1B680392002BB8BF4FF0FF333B
:104AE000059310E0002319460593781C0A24074615
:104AF0003A780130303A092A03D804FB0121012316
:104B0000F5E703B1059103223978224800F0E6F970
:104B100040B14023CBEB000003FA00F0049B0137C7
:104B200018430490397806221B487E1C8DF8281003
:104B300000F0D4F988B1194B33B9039B073323F044
:104B400007030833039314E003AB00932A46144B86
:104B500004A94046AFF3008007E003AB00932A4668
:104B60000F4B04A9404600F093F8B0F1FF3F824696
:104B700003D0099B5344099342E7AB895B0601D4F8
:104B8000099801E04FF0FF301DB0BDE8F08F00BF85
:104B90003C50000042500000465000000000000061
:104BA000094900002DE9F04791461F460A698B68C4
:104BB00006469342B8BF1346C9F8003091F8432027
:104BC0000C46DDF8208012B10133C9F800302368AB
:104BD000990642BFD9F800300233C9F80030256881
:104BE00015F0060510D104F1190A07E00123524619
:104BF00039463046C04701301AD00135E368D9F84C
:104C000000209B1A9D42F1DB94F843302268003368
:104C100018BF012392060FD5E118302081F8430018
:104C20005A1C94F845102244023382F8431003E0E2
:104C30004FF0FF30BDE8F08704F1430239463046BB
:104C4000C0470130F4D02268D9F80050E36802F080
:104C50000602042A08BF5D1B2269A3680CBF25EA6F
:104C6000E57500259342C4BF9B1AED184FF000096B
:104C70001A344D4509D00123224639463046C047F3
:104C80000130D5D009F10109F3E70020BDE8F08734
:104C90002DE9F04317460A7E85B06E2A98460646EF
:104CA0000C460C9B01F1430E00F0AE8011D8632A34
:104CB00022D009D8002A00F0BB80582A40F0CA80D0
:104CC00081F84520834955E0642A1ED0692A1CD00A
:104CD000C0E0732A00F0B08009D86F2A2ED0702A65
:104CE00040F0B8800A6842F020020A603EE0752A6F
:104CF00024D0782A3AD0ADE01A6801F14205111D9E
:104D00001960136884F84230A8E021681A6811F02D
:104D1000800F02D0111D196008E011F0400F02F160
:104D20000401196002D0B2F9003000E01368002BD2
:104D30003CDA2D225B4284F8432037E021681A6870
:104D400011F0800F02D0111D196007E011F0400F23
:104D500002F10401196001D0138800E01368227E7B
:104D60005C496F2A14BF0A2208221BE078225A49A4
:104D700084F845202268186812F0800F00F10405BD
:104D80001D6003D1550601D5038800E00368D007F4
:104D900044BF42F0200222601BB9226822F02002A8
:104DA00022601022002084F8430001E049490A22D1
:104DB0006568002DA56008DB206820F004002060F5
:104DC0002BB9002D7DD175460CE0002B79D07546AE
:104DD000B3FBF2F002FB1033CB5C05F8013D034658
:104DE0000028F5D1082A0BD12368DA0708D52369F2
:104DF00062689A42DEBF302305F8013C05F1FF35B9
:104E0000C5EB0E0323612EE008681A6810F0800FCE
:104E1000496903D0101D1860136808E010F0400FB6
:104E200002F104001860136801D0198000E01960D5
:104E300000232361754616E01A68111D1960156874
:104E400000216268284600F049F808B1401B606004
:104E5000636804E004F1420584F8422001232361E1
:104E6000002384F84330CDF800803B4603AA214656
:104E70003046FFF797FE013002D14FF0FF3026E0B9
:104E800023692A4639463046C0470130F5D02368A9
:104E90009B0710D5002504F1190907E001234A46B4
:104EA00039463046C0470130E7D00135E368039A00
:104EB0009B1A9D42F2DBE068039B9842B8BF1846FC
:104EC00005E00B7804F1420584F842308AE705B02A
:104ED000BDE8F0834D5000005E50000010B5C9B22F
:104EE00002449042034605D01C7801308C42F8D130
:104EF000184610BD002010BD10B5431E0A44914253
:104F000004D011F8014B03F8014FF8E710BD8842B7
:104F100010B501EB020301D8421E0BE09842FBD210
:104F20008118D21AD34204D013F8014D01F8014D73
:104F3000F8E710BD994204D011F8014B02F8014F77
:104F4000F8E710BDF8B5074615460E4621B91146DB
:104F5000BDE8F840FFF72EBC1AB9FFF7DFFB284683
:104F6000F8BD00F015F885420ED929463846FFF7FE
:104F700021FC044650B131462A46FFF7BDFF3146B9
:104F80003846FFF7CBFB01E03046F8BD2046F8BDC0
:104F900051F8040C0028BEBF091851F8043CC01891
:104FA00004387047044A05491368002B08BF0B46B4
:104FB00018441060184670479C070020E01300203A
:104FC000FEE700BFF8B500BFF8BC08BC9E467047BE
:104FD000F8B500BFF8BC08BC9E4670473A2E2500C5
:104FE000000000000A2D2D2D5258204F56455246E4
:104FF0004C4F572D2D2D0A00050000000000000029
:1050000040420F0005010000000000000000000009
:10501000756E69742020202070726F6772657373DB
:105020000000000070796E71256920202025692517
:105030000000000025690000E4050020232D302B2E
:105040002000686C4C006566674546470030313289
:1050500033343536373839414243444546003031E0
:10506000323334353637383961626364656600003F
:04507000000000003C
:08507400C4B0FF7F0100000041
:10507C0004000000386CC6C6FEC6C6C6F8CCCCF818
:10508C00CCC6C6FC3C66C2C0C0C2663CF8C4C2C238
:10509C00C2C2C6F8FEC0C0F8C0C0C0FEFEC0C0F0A0
:1050AC00C0C0C0C03C66C2C0CEC2663CC6C6C6C686
:1050BC00FEC6C6C63C1818181818183C0606060674
:1050CC0006C6C67CC6CCD8F0F0D8CCC6C0C0C0C012
:1050DC00C0C0C0FEC2E6DAC2C2C2C2C2C2E2D2CAFA
:1050EC00C6C2C2C2386CC6C6C6C66C38FCC6C6C6FA
:1050FC00FCC0C0C0386CC6C6D6DE6C3AFCC6C6CE88
:10510C00F8CCC6C67CC6C0780C06C67CFE1818182F
:10511C0018181818C6C6C6C6C6C6EE7CC6C6C6C6FD
:10512C006C6C3810C6C6C6C6D6D6EEC6C6C66C38AB
:10513C00386CC6C6C6C66C3810101010FE040C189D
:10514C003060C0FE386CC6C6C6C66C383C0C0C0C45
:10515C000C0C0C3E38CC86061C3060FE3C66061CE3
:10516C000E06663CC6C6C6C6FE060606FEC0C0FCDB
:10517C00060606FC386CC6C0FCC6C67CFE060C18BF
:10518C003030303038446C386CC6C67C7EC6C6C6EF
:10519C007E060606003030000030300000000000B3
:1051AC0000181800006264081026460000E4004055
:1051BC00050000000000000000C201000005000016
:1051CC00001000000000000000000000F0FF0300D1
:1051DC000000000000FEFF3F000000000000FFFF89
:1051EC00FF010000000080FFFFFF0300000000C073
:1051FC00FFFFFF0700000000E0FFFFFF0F000000B3
:10520C0000F0FFFFFF1F00000000F8FFFFFF1F0072
:10521C00000000FCFFFFFF3F00000000FEFFFFFF4F
:10522C007F00000000FEFFFFFF7F00000000FFFF7B
:10523C00FFFF7F00000000FFFFFFFFFF00000000EA
:10524C00FEFFFFFFFF00000000FEFFFFFFFF01005D
:10525C000000FCFFFFFFFF01000000FCFFFFFFFF51
:10526C0001000000FCFF0FFCFF01000000F8FFC371
:10527C00F3FF03000000F8FFF1E7FF03000000F06C
:10528C00FFF8CFFF03000000F07FFCCFFF0300000E
:10529C0000F07FFC9FFF03000000F03FFE9FFF0328
:1052AC00000000F03FFF9FFF03000000F01FFF9F76
:1052BC00FF03000000F81FFF9FFF03000000F89F92
:1052CC00FF9FFF03000000F88FFF9FFF030000000B
:1052DC00FC8FFF9FFF03000000FC8FFF8FFF03007C
:1052EC000000FE8FFFCFFF03000000FE9FFFC7FFF3
:1052FC0003000000FE9FFFC6FF03000000FF9FFF9E
:10530C00E2FF03000080FF3FFFF1FF03000080FF7E
:10531C003FFFF0FF030000C0FF7F7EF8FF0100009D
:10532C00E0FFFF00F0FF010000F0FFFF03E7FF01CB
:10533C000000F8FFFFFFC7FF010000FCFFFFFF0F9D
:10534C00FE010000FEFFFFFF1F00000000FFFFFF3B
:10535C00FF7F00000080FFFFFFFFFF070000E0FF62
:10536C00FFFFFFFFFF0100E0FFFFFFFFFFFF00005B
:10537C00E0FFFFFFFFFFFF0000C0FFFFFFFFFFFF8D
:10538C00000080FFFFFFFFFFFF000000FFFFFFFF9B
:10539C00FF7F000000FCFFFFFFFF7F000000FEFF0F
:1053AC00FFFFFF7F000080E3FFFFFFFF3F00008057
:1053BC00800FFEFFFF3F0000C00007F8FFFF3F001B
:1053CC0000600000E0FFFF1F0000300000C0FFFF86
:1053DC001F000018000080FFFF0F000018000000E5
:1053EC00FFFF0F00080C000000FEFF07001806006E
:1053FC000000FCFF0700FC03000000F8FF0300C8DE
:10540C0000000000F0FF03000800000100E0FF11A5
:10541C00001800800100C0FF19003000C00300001C
:10542C00FF1E006000E0070000FC1F00C001F00739
:10543C000000000C008007FC0F0000000C0000FEB8
:10544C00FF3F000000060000C0F07F0000000300DA
:10545C000000F0FF0100C001000000F0FF0F00F0A1
:10546C0000000000E0FF7F003E00000000E0FFFFB6
:10547C00FF0700000000E0FFFF7F0000000000C0FD
:10548C00FFFF3F0000000000C0FFFF1F00000000F6
:10549C0000C0FFFF0F0000000000C0FFFF0700006E
:1054AC0000000080FFFF01000000000080FFFF00F3
:1054BC00000000000080FF7F00000000000080FF63
:1054CC001F00000000000080FF0F00000000000023
:1054DC0080FF03000000000000807F00000000003F
:1054EC000000800F00000000000000000000000021
:1054FC0000000000000000000000000000000000A0
:10550C00000000000000000000000000000000008F
:10551C00000000000000000000000000000000007F
:10552C00000000000000000100000000003C0080B2
:10553C000100000000003F008001000000008033EB
:10554C0000C00000000000C03000C00000C01F0000
:10555C00601800E00000E03900301800E00000782E
:10556C006000100C00F01F00184000180EC0FF0166
:10557C00000CC00014064078000006C000140300A4
:10558C0078000006C000121F0078000003C00090D5
:10559C003F006C000003C000D0330066008001C0E7
:1055AC0000D8180066008001C00008D84363008052
:1055BC0001C000086CE7630080016200086CF761B1
:1055CC0000800167000CE6DF610080016C000CE7D5
:1055DC00DC600280013C700463C0E0018001383E55
:1055EC00840100000080011800C40100000080014B
:1055FC001C00F60000000000031F007E00000000ED
:10560C0000CE1B00020000000000FC19000200008C
:10561C000000000018000100000000000010000154
:10562C00000000000000300001000000000000300D
:10563C0000000000000000006000000000000000FE
:10564C000000000000000000006CDC020080000084
:10565C00809FD5000000000000000000000000004A
:10566C00000000000000000000000000000000002E
:10567C00000000000000000000000000000000001E
:10568C00000000000000000000000000000000000E
:10569C0000000000000000000000000000000000FE
:1056AC0000000000000000000000000000000000EE
:1056BC0000000000E405002001010000DD000000F6
:0456CC0000000000DA
:0400000300002135A3
:00000001FF
