:1000000000000220D50300000104000001040000EC
:1000100001040000010400000104000001040000CC
:1000200001040000010400000104000001040000BC
:1000300001040000010400000104000005020000AA
:10004000010400000104000001040000010400009C
:10005000010400000104000001040000010400008C
:10006000010400004D030000010400000104000031
:10007000010400000104000001040000010400006C
:10008000010400000104000001040000010400005C
:10009000010400000104000001040000010400004C
:1000A000010400000104000001040000010400003C
:1000B00001040000010400001D0300000104000011
:1000C000010400000104000001040000010400001C
:1000D00001040000010400000104000010B5054CFB
:1000E000237833B9044B13B10448AFF300800123E4
:1000F000237010BD78000020000000008410000074
:10010000084B10B51BB108490848AFF300800848F8
:10011000036803B910BD074B002BFBD0BDE81040AE
:10012000184700BF000000007C0000208410000081
:100130007400002000000000154B002B08BF134B7B
:100140009D46A3F5803A00218B460F461348144A7A
:10015000121A00F07FFF0F4B002B00D098470E4B78
:10016000002B00D098470020002104000D000D480E
:10017000002802D00C48AFF3008000F045FF2000BB
:10018000290000F071F800F02BFF00BF000008000C
:1001900000000220000000000000000078000020A5
:1001A000AC0000200000000000000000034BDB6CEE
:1001B00003F07F431B0EDBB218467047B081E00F9F
:1001C00000B583B0FFF7F2FF03468DF8073001ABAF
:1001D000184600F0C7FE9DF807300F2B0BD99DF88D
:1001E0000430022B07D9064A054B1B6823F0500345
:1001F00043F01003136000BF03B05DF804FB00BFC1
:10020000C0800C40034B1B680133024A136000BFDF
:10021000704700BF9800002000B583B0114B0093D9
:10022000012304220221042000F000FE0023019398
:1002300002E0019B01330193019A009B9A42F8DB93
:10024000002304220221042000F0F0FD002301938A
:1002500002E0019B01330193019A009B9A42F8DB73
:10026000DEE700BF40420F0008B5FFF7A9FF0121FC
:10027000034800F069FBFFF7CFFF0023184608BDD5
:1002800000D2040082B003468DF8073008499DF97A
:1002900007305B099DF8072002F01F02012000FAD9
:1002A00002F2203341F8232000BF02B0704700BFA4
:1002B00000E100E082B001900091019B009A1A6376
:1002C00000BF02B0704700BF82B001900091019B57
:1002D0005A6B009BDB431A40019B5A6300BF02B07C
:1002E000704700BF82B00190024A019B936100BF3A
:1002F00002B070470000084008B50920FFF7C2FFB0
:1003000004490548FFF7E0FF02490348FFF7D2FF21
:1003100000BF08BD2400010000A0004008B5022075
:10032000FFF7E0FF074B1B78DBB283F00103DBB282
:10033000002B04D0FFF7E0FF034B01221A7000BF2F
:1003400008BD00BF940000209500002000B583B0D8
:100350001C4B9B6A0193019B03F00403002B09D003
:10036000194B01221A70174BDB6904211548FFF75E
:10037000A1FF12E0019B03F02003002B0DD0134BD3
:100380001B781A460F4BDB69D9B2114B99540F4BAE
:100390001B780133DAB20D4B1A70019B03F48033E2
:1003A000002B0AD04FF480310648FFF783FF064B3D
:1003B00000221A70054B00221A7000BF03B05DF8CE
:1003C00004FB00BF00A00040940000209C0000201F
:1003D000A0000020064880470649074A074B9A427A
:1003E000BEBF51F8040B42F8040BF8E7FFF7A4FE78
:1003F0004D05000090100000000000207800002053
:10040000FEE700BF034BDB6C03F07F431B0EDBB248
:1004100018467047B081E00F00B583B000F016F8C1
:100420000190084B5B6803F00F03019A22FA03F373
:100430000193054A019B1360019B184603B05DF8C8
:1004400004FB00BF00800C400800002000B583B012
:10045000334BDB6A03F47053B3F5805F0AD0B3F516
:10046000005F03D0B3F5006F08D00BE02D4B1B6885
:10047000019347E04FF40043019343E02A4B1B688C
:1004800001933FE0264BDB6803F4E063B3F5007FA4
:100490001BD0B3F5007F05D8002B24D0B3F5807FA7
:1004A00016D02BE0B3F5806F09D0B3F5A06F03D061
:1004B000B3F5407F06D021E01C4B019321E01C4B9B
:1004C00001931EE01B4B01931BE01B4B019318E0B3
:1004D000FFF798FF0346122B02D9184B019310E047
:1004E000174B01930DE0FFF78DFF0346122B02D946
:1004F000144B019305E0144B019302E00023019398
:1005000000BF00BF064B1B6803F4E0339B0B0133B5
:10051000019AB2FBF3F3184603B05DF804FB00BF89
:1005200000800C400400002000000020003FAB01D0
:10053000406F4001809FD500C0D8A70040B564003F
:10054000C0CF6A00804F120040420F0000BF7047CA
:100550004FF40043184670474FF47A7318467047BB
:10056000014B1B68184670470400002086B00390BA
:1005700002910192039B03F10473DA00029B13447E
:100580009B000593059B019A1A6000BF06B0704757
:1005900084B001900091019B03F10473DA00009B89
:1005A00013449B000393039B1B68184604B07047D9
:1005B00084B00190019B002B03D0019BB3F5004F49
:1005C00000BF019BB3FA83F3C3F11F030393039BA3
:1005D000184604B0704700BF034BDB6C03F07F4349
:1005E0001B0EDBB218467047B081E00F034BDB6C8B
:1005F00003F47F031B0CDBB218467047B081E00F99
:1006000000B583B0FFF7F2FF03464A2B04D0792BE5
:1006100002D0482B27D028E0164B1B699BB203F071
:100620003F039BB21B02ADF80630124B9B6903F0EF
:10063000F0039AB2BDF806301343ADF806300D4B07
:10064000DB6903F0F0031B099AB2BDF806301343CF
:10065000ADF80630BDF80630B3F5017F01D3064B87
:1006600004E0064B02E0054B00E00023184603B00F
:100670005DF804FBD0FF0FE000366E010048E80192
:1006800000B585B0019001230393FFF7B9FF02463F
:10069000019B9A4204D300230393002302930BE0AF
:1006A000FFF7AEFF03465A00019B9A4202D3012393
:1006B000029301E002230293039A1E210748FFF7E9
:1006C00055FF0649054B5B6823F48072029B1B02B1
:1006D00013434B6000BF05B05DF804FB00800C4085
:1006E00000B583B01E210448FFF752FF0190019B23
:1006F000184603B05DF804FB00800C4000B583B0E1
:10070000214B5B6903F4E063B3F5007F1CD0B3F5C4
:10071000007F05D8002B25D0B3F5807F1FD02AE0BD
:10072000B3F5C06F24D0B3F5E06F1ED0B3F5407FB2
:1007300021D1FFF751FF0346122B02D9134B01932E
:100740001CE0134B019319E0FFF746FF0346122B01
:1007500002D9104B019311E00F4B01930EE00F4BA8
:1007600001930BE00E4B019308E00E4B019305E063
:100770000D4B019302E00023019300BF019B18463B
:1007800003B05DF804FB00BF00800C40804F1200F6
:1007900040420F0040B56400C0CF6A00C0D8A70037
:1007A000809FD500406F4001003FAB0100B583B092
:1007B0000D4800F01BFA03468DF803309DF8033016
:1007C000072B05D0092B07D1FFF740FE019006E06B
:1007D000FFF794FF019002E00023019300BF019B0B
:1007E000184603B05DF804FB06000C0010B584B099
:1007F000019000230293019B324A934203D0324A74
:10080000934200D000E000BF019800F0EFF90346EA
:100810000393019B2B4A934203D02B4A934206D069
:100820000CE02A4B9B6A03F00303039306E0274B7B
:100830009B6A03F00C039B08039300BF039B032BED
:1008400038D801A252F823F07F08000059080000B0
:100850006108000069080000FFF77AFE02902DE0B1
:10086000FFF77EFE029029E0FFF7D6FD0446FFF772
:1008700037FF0346013324FA03F302931EE00023FB
:100880000293019B0F4A934203D0019B0E4A93426D
:1008900013D10E4B9A6A019B0A498B4201D1102356
:1008A00000E0142322FA03F3002B06D0FFF754FED6
:1008B000029002E00023029300E000BF029B184672
:1008C00004B010BD02001A0003001C0000800C40A0
:1008D00082B00190084B5B6D03F00103002B07D140
:1008E00000BF054B1A6D019B1340002BF9D100E0AE
:1008F00000BF02B0704700BF00800C4000B583B05D
:10090000104800F073F903468DF803309DF803306A
:10091000032B07D0092B09D0022B0BD1FFF720FEA8
:1009200001900AE0FFF714FE019006E0FFF78EFD4C
:10093000019002E00023019300BF019B184603B021
:100940005DF804FB0723220000B587B001900B4639
:100950008DF8033000230493019B1B0A03F00F035F
:10096000013B092B46D801A252F823F0A909000047
:10097000AF09000095090000F5090000F509000025
:10098000B5090000BF090000F5090000F5090000E5
:10099000C9090000194B0593194800F03DF80346BA
:1009A0001846FFF76DFE12E0164B05930FE0164B4D
:1009B00005930CE0154B05930123049307E0144BBA
:1009C00005931023049302E0124B059300BF019B93
:1009D0001B0B03F01F030393049B002B02D004980E
:1009E000FFF776FF9DF803301A4603990598FFF745
:1009F000BDFD00E000BF07B05DF804FB40800C4087
:100A00000043020008800C4044800C4058800C4099
:100A100060800C4078800C4010B584B00190019B40
:100A200003F47813B3F5B01F00F0AB80B3F5B01F3B
:100A30001AD8B3F5402F00F0BF80B3F5402F08D887
:100A4000B3F5003F3CD0B3F5802F2DD0002B27D03D
:100A5000BEE0B3F5801F3CD0B3F5A01F47D0B3F57F
:100A6000602F00F0AD80B3E0B3F5081F00F0AC805C
:100A7000B3F5081F0AD8B3F5D01F25D0B3F5E01F92
:100A80007AD0B3F5C01F00F08980A1E0B3F5201F34
:100A90004ED0B3F5281F62D0B3F5181F35D097E0BC
:100AA000FFF7D4FC039096E0FFF7D0FC03904C4B8B
:100AB0009B6803F00F03039A22FA03F303938AE07F
:100AC000FFF7AAFC039086E04648FFF78FFE0390ED
:100AD00081E04448FFF78AFE0390414B9B6E03F090
:100AE000F0031B09039A22FA03F3039373E03D48D2
:100AF000FFF77CFE03903A4B9B6E03F470631B0A76
:100B0000039A22FA03F3039365E03648FFF76EFE7B
:100B10000390334B9B6E03F440531C0B1020FFF7E4
:100B200047FD03462344039A22FA03F3039352E05A
:100B30002C48FFF75BFE0390294B9B6E03F4405358
:100B40001B0B039A22FA03F30393254BDB6F03F08D
:100B500007030133039AB2FBF3F303933BE021480D
:100B6000FFF744FE03901E4B9B6E03F00303039AB2
:100B700022FA03F303932EE01B48FFF737FE03909E
:100B800029E01948FFF732FE0390154B1B6F03F065
:100B90000303039A22FA03F303931CE01248FFF7BE
:100BA00025FE03900E4B1B6F03F030031B09039AC5
:100BB00022FA03F303930EE0FFF7F8FD03900AE037
:100BC000FFF79CFD039006E0FFF798FE039002E01C
:100BD0000023039300BF039B184604B010BD00BF61
:100BE00000800C4002001A0003001C0084B0019039
:100BF00001238DF80F30019B03F00F030293029B3A
:100C0000013B062B00F2A68001A252F823F000BFA0
:100C10002D0C00006B0C0000AF0C0000550D000007
:100C2000550D0000F30C0000190D00004E4BDB6A5F
:100C300003F47053B3F5805F0AD0B3F5005F03D0BF
:100C4000B3F5006F08D00BE002238DF80F300BE0F6
:100C500003238DF80F3007E004238DF80F3003E0F5
:100C600005238DF80F3000BF78E03F4B9B6A03F0FF
:100C70000303022B07D0032B09D0012B0BD1032335
:100C80008DF80F3012E002238DF80F300EE00623AE
:100C90008DF80F300AE0344B9B6A03F48033002B4D
:100CA00003D00A238DF80F3000E000BF56E02E4B32
:100CB0009B6A03F00C03082B07D00C2B09D0042BE4
:100CC0000BD103238DF80F3012E002238DF80F3083
:100CD0000EE006238DF80F300AE0234B9B6A03F4E5
:100CE0008013002B03D00A238DF80F3000E000BFE3
:100CF00034E01D4B1B6803F08053002B03D0B3F18D
:100D0000805F04D02AE007238DF80F3003E0092329
:100D10008DF80F3000BF21E0134BDB6A03F4603322
:100D2000B3F5803F09D0B3F5003F0AD0B3F5004FCB
:100D30000BD109238DF80F300BE002238DF80F3013
:100D400007E003238DF80F3003E001238DF80F3007
:100D500000BF03E000238DF80F3000BF9DF80F3077
:100D6000184604B0704700BF00800C4082B00346B4
:100D700000918DF807309DF80730002B12D09DF8B8
:100D80000730012B0ED09DF80730022B0AD09DF8BA
:100D90000730032B06D09DF80730042B02D09DF8B6
:100DA0000730052B08499DF807200120009B00FA19
:100DB00003F318461346DB0013449B000B44143323
:100DC000186000BF02B070470060004082B0034668
:100DD00000918DF807309DF80730002B12D09DF858
:100DE0000730012B0ED09DF80730022B0AD09DF85A
:100DF0000730032B06D09DF80730042B02D09DF856
:100E00000730052B08499DF807200120009B00FAB8
:100E100003F318461346DB0013449B000B441033C6
:100E2000186000BF02B070470060004010B584B089
:100E30000291019303468DF80F3013468DF80E3062
:100E40009DF80F30002B12D09DF80F30012B0ED0E3
:100E50009DF80F30022B0AD09DF80F30032B06D0DF
:100E60009DF80F30042B02D09DF80F30052B9DF814
:100E70000E30002B0FD0019B002B06D09DF80F30B9
:100E800002991846FFF7A2FF05E09DF80F3002997E
:100E90001846FFF76BFF029B072B22D8304C9DF8BA
:100EA0000F202F489DF80F100B46DB000B449B00D2
:100EB000034404331968029B9B000F2000FA03F3DC
:100EC000DB430B409DF80E000299890000FA01F106
:100ED00019431346DB0013449B0023440433196079
:100EE00027E01F4C9DF80F201D489DF80F100B4662
:100EF000DB000B449B00034408331968029B03F199
:100F00008043083B9B000F2000FA03F3DB431940AA
:100F10009DF80E00029B03F18043083B9B0000FA02
:100F200003F319431346DB0013449B0023440833A7
:100F300019609DF80E30002B0FD1019B002B06D0BD
:100F40009DF80F3002991846FFF740FF05E09DF825
:100F50000F3002991846FFF709FF00BF04B010BD1B
:100F60000060004084B001901C4B5B69DBB203F071
:100F70000F03DBB29B008DF80F30184B1B6903F099
:100F8000C0039B09DAB29DF80F3013438DF80F3080
:100F9000019B9DF80F209A70104B1B69DBB203F088
:100FA0003F03DAB2019B5A700C4B9B69DBB223F012
:100FB0000F038DF80F30094BDB6903F0F0031B09B9
:100FC000DAB29DF80F3013438DF80F30019B9DF876
:100FD0000F201A7000BF04B0704700BFD0FF0FE0B1
:100FE00008B5074B044613B10021AFF30080054B51
:100FF0001868836A03B19847204600F033F800BFB1
:1010000000000000801000000E4B70B51E460E4C14
:101010000025E41AA410A54204D056F825309847BC
:101020000135F8E700F020F8084B094C1E46E41A99
:10103000A4100025A54204D056F825309847013564
:10104000F8E770BD6C0000206C0000206C000020F0
:101050007000002003460244934202D003F8011BB3
:10106000FAE77047FEE700BFF8B500BFF8BC08BC60
:101070009E467047F8B500BFF8BC08BC9E46704756
:081080000C000020000000003C
:08108800B0F0FF7F0100000041
:10109000006CDC0200800000809FD5000000000092
:1010A0000000000000000000000000000000000040
:1010B0000000000000000000000000000000000030
:1010C0000000000000000000000000000000000020
:1010D0000000000000000000000000000000000010
:1010E0000000000000000000000000000000000000
:1010F00000000000000000000000000001010000EE
:08110000DD000000000000000A
:04000003000003D521
:00000001FF
